{"contracts/PulseInvest.sol":{"PulseInvest":{"abi":[{"inputs":[{"internalType":"address","name":"_treasury","type":"address"}],"stateMutability":"nonpayable","type":"constructor"},{"inputs":[{"internalType":"address","name":"owner","type":"address"},{"internalType":"address","name":"spender","type":"address"},{"internalType":"uint256","name":"requested","type":"uint256"},{"internalType":"uint256","name":"available","type":"uint256"}],"name":"AllowanceExceeded","type":"error"},{"inputs":[{"internalType":"address","name":"spender","type":"address"},{"internalType":"uint256","name":"allowance","type":"uint256"},{"internalType":"uint256","name":"needed","type":"uint256"}],"name":"ERC20InsufficientAllowance","type":"error"},{"inputs":[{"internalType":"address","name":"sender","type":"address"},{"internalType":"uint256","name":"balance","type":"uint256"},{"internalType":"uint256","name":"needed","type":"uint256"}],"name":"ERC20InsufficientBalance","type":"error"},{"inputs":[{"internalType":"address","name":"approver","type":"address"}],"name":"ERC20InvalidApprover","type":"error"},{"inputs":[{"internalType":"address","name":"receiver","type":"address"}],"name":"ERC20InvalidReceiver","type":"error"},{"inputs":[{"internalType":"address","name":"sender","type":"address"}],"name":"ERC20InvalidSender","type":"error"},{"inputs":[{"internalType":"address","name":"spender","type":"address"}],"name":"ERC20InvalidSpender","type":"error"},{"inputs":[{"internalType":"address","name":"owner","type":"address"}],"name":"OwnableInvalidOwner","type":"error"},{"inputs":[{"internalType":"address","name":"account","type":"address"}],"name":"OwnableUnauthorizedAccount","type":"error"},{"anonymous":false,"inputs":[{"indexed":true,"internalType":"address","name":"owner","type":"address"},{"indexed":true,"internalType":"address","name":"spender","type":"address"},{"indexed":false,"internalType":"uint256","name":"value","type":"uint256"}],"name":"Approval","type":"event"},{"anonymous":false,"inputs":[{"indexed":true,"internalType":"address","name":"from","type":"address"},{"indexed":false,"internalType":"uint256","name":"burnAmount","type":"uint256"},{"indexed":false,"internalType":"uint256","name":"treasuryAmount","type":"uint256"}],"name":"FeeTaken","type":"event"},{"anonymous":false,"inputs":[{"indexed":true,"internalType":"address","name":"previousOwner","type":"address"},{"indexed":true,"internalType":"address","name":"newOwner","type":"address"}],"name":"OwnershipTransferred","type":"event"},{"anonymous":false,"inputs":[{"indexed":true,"internalType":"address","name":"from","type":"address"},{"indexed":true,"internalType":"address","name":"to","type":"address"},{"indexed":false,"internalType":"uint256","name":"value","type":"uint256"}],"name":"Transfer","type":"event"},{"inputs":[],"name":"ANTIBOT_BLOCKS","outputs":[{"internalType":"uint256","name":"","type":"uint256"}],"stateMutability":"view","type":"function"},{"inputs":[],"name":"ANTIBOT_FEE","outputs":[{"internalType":"uint256","name":"","type":"uint256"}],"stateMutability":"view","type":"function"},{"inputs":[{"internalType":"address","name":"owner","type":"address"},{"internalType":"address","name":"spender","type":"address"}],"name":"allowance","outputs":[{"internalType":"uint256","name":"","type":"uint256"}],"stateMutability":"view","type":"function"},{"inputs":[{"internalType":"address","name":"spender","type":"address"},{"internalType":"uint256","name":"value","type":"uint256"}],"name":"approve","outputs":[{"internalType":"bool","name":"","type":"bool"}],"stateMutability":"nonpayable","type":"function"},{"inputs":[{"internalType":"address","name":"account","type":"address"}],"name":"balanceOf","outputs":[{"internalType":"uint256","name":"","type":"uint256"}],"stateMutability":"view","type":"function"},{"inputs":[],"name":"decimals","outputs":[{"internalType":"uint8","name":"","type":"uint8"}],"stateMutability":"view","type":"function"},{"inputs":[],"name":"name","outputs":[{"internalType":"string","name":"","type":"string"}],"stateMutability":"view","type":"function"},{"inputs":[],"name":"openTrading","outputs":[],"stateMutability":"nonpayable","type":"function"},{"inputs":[],"name":"owner","outputs":[{"internalType":"address","name":"","type":"address"}],"stateMutability":"view","type":"function"},{"inputs":[],"name":"renounceOwnership","outputs":[],"stateMutability":"nonpayable","type":"function"},{"inputs":[],"name":"symbol","outputs":[{"internalType":"string","name":"","type":"string"}],"stateMutability":"view","type":"function"},{"inputs":[],"name":"totalSupply","outputs":[{"internalType":"uint256","name":"","type":"uint256"}],"stateMutability":"view","type":"function"},{"inputs":[],"name":"tradingOpened","outputs":[{"internalType":"bool","name":"","type":"bool"}],"stateMutability":"view","type":"function"},{"inputs":[],"name":"tradingOpenedBlock","outputs":[{"internalType":"uint256","name":"","type":"uint256"}],"stateMutability":"view","type":"function"},{"inputs":[{"internalType":"address","name":"to","type":"address"},{"internalType":"uint256","name":"amount","type":"uint256"}],"name":"transfer","outputs":[{"internalType":"bool","name":"","type":"bool"}],"stateMutability":"nonpayable","type":"function"},{"inputs":[{"internalType":"address","name":"from","type":"address"},{"internalType":"address","name":"to","type":"address"},{"internalType":"uint256","name":"amount","type":"uint256"}],"name":"transferFrom","outputs":[{"internalType":"bool","name":"","type":"bool"}],"stateMutability":"nonpayable","type":"function"},{"inputs":[{"internalType":"address","name":"newOwner","type":"address"}],"name":"transferOwnership","outputs":[],"stateMutability":"nonpayable","type":"function"},{"inputs":[],"name":"treasury","outputs":[{"internalType":"address","name":"","type":"address"}],"stateMutability":"view","type":"function"}],"evm":{"bytecode":{"linkReferences":{},"object":"60a06040523480156200001157600080fd5b506040516200311638038062003116833981810160405281019062000037919062000717565b336040518060400160405280600b81526020017f50756c7365496e766573740000000000000000000000000000000000000000008152506040518060400160405280600481526020017f50494e56000000000000000000000000000000000000000000000000000000008152508160039081620000b59190620009c3565b508060049081620000c79190620009c3565b505050600073ffffffffffffffffffffffffffffffffffffffff168173ffffffffffffffffffffffffffffffffffffffff16036200013f5760006040517f1e4fbdf700000000000000000000000000000000000000000000000000000000815260040162000136919062000abb565b60405180910390fd5b62000150816200031e60201b60201c565b506200016d676efa92a6333b5a2a60c01b620003e460201b60201c565b620001896722e680cd62b8004560c01b620003e460201b60201c565b620001a5674193f8f8a4ed2d6360c01b620003e460201b60201c565b620001c167746369b82197865160c01b620003e460201b60201c565b600073ffffffffffffffffffffffffffffffffffffffff168173ffffffffffffffffffffffffffffffffffffffff160362000233576040517f08c379a00000000000000000000000000000000000000000000000000000000081526004016200022a9062000b39565b60405180910390fd5b6200024f6732028b3f1fe5ba3060c01b620003e460201b60201c565b6200026b67bddafd5d742ee21660c01b620003e460201b60201c565b8073ffffffffffffffffffffffffffffffffffffffff1660808173ffffffffffffffffffffffffffffffffffffffff1681525050620002bb672c9cfe13e3f47dfa60c01b620003e460201b60201c565b620002d767eb984009b3afe30b60c01b620003e460201b60201c565b6200031733620002ec620003e760201b60201c565b600a620002fa919062000ceb565b6301406f406200030b919062000d3c565b620003f060201b60201c565b5062000e2d565b6000600560009054906101000a900473ffffffffffffffffffffffffffffffffffffffff16905081600560006101000a81548173ffffffffffffffffffffffffffffffffffffffff021916908373ffffffffffffffffffffffffffffffffffffffff1602179055508173ffffffffffffffffffffffffffffffffffffffff168173ffffffffffffffffffffffffffffffffffffffff167f8be0079c531659141344cd1fd0a4f28419497f9722a3daafe3b4186f6b6457e060405160405180910390a35050565b50565b60006012905090565b600073ffffffffffffffffffffffffffffffffffffffff168273ffffffffffffffffffffffffffffffffffffffff1603620004655760006040517fec442f050000000000000000000000000000000000000000000000000000000081526004016200045c919062000abb565b60405180910390fd5b62000479600083836200047d60201b60201c565b5050565b600073ffffffffffffffffffffffffffffffffffffffff168373ffffffffffffffffffffffffffffffffffffffff1603620004d3578060026000828254620004c6919062000d87565b92505081905550620005a9565b60008060008573ffffffffffffffffffffffffffffffffffffffff1673ffffffffffffffffffffffffffffffffffffffff1681526020019081526020016000205490508181101562000562578381836040517fe450d38c000000000000000000000000000000000000000000000000000000008152600401620005599392919062000dd3565b60405180910390fd5b8181036000808673ffffffffffffffffffffffffffffffffffffffff1673ffffffffffffffffffffffffffffffffffffffff16815260200190815260200160002081905550505b600073ffffffffffffffffffffffffffffffffffffffff168273ffffffffffffffffffffffffffffffffffffffff1603620005f4578060026000828254039250508190555062000641565b806000808473ffffffffffffffffffffffffffffffffffffffff1673ffffffffffffffffffffffffffffffffffffffff168152602001908152602001600020600082825401925050819055505b8173ffffffffffffffffffffffffffffffffffffffff168373ffffffffffffffffffffffffffffffffffffffff167fddf252ad1be2c89b69c2b068fc378daa952ba7f163c4a11628f55a4df523b3ef83604051620006a0919062000e10565b60405180910390a3505050565b600080fd5b600073ffffffffffffffffffffffffffffffffffffffff82169050919050565b6000620006df82620006b2565b9050919050565b620006f181620006d2565b8114620006fd57600080fd5b50565b6000815190506200071181620006e6565b92915050565b60006020828403121562000730576200072f620006ad565b5b6000620007408482850162000700565b91505092915050565b600081519050919050565b7f4e487b7100000000000000000000000000000000000000000000000000000000600052604160045260246000fd5b7f4e487b7100000000000000000000000000000000000000000000000000000000600052602260045260246000fd5b60006002820490506001821680620007cb57607f821691505b602082108103620007e157620007e062000783565b5b50919050565b60008190508160005260206000209050919050565b60006020601f8301049050919050565b600082821b905092915050565b6000600883026200084b7fffffffffffffffffffffffffffffffffffffffffffffffffffffffffffffffff826200080c565b6200085786836200080c565b95508019841693508086168417925050509392505050565b6000819050919050565b6000819050919050565b6000620008a46200089e62000898846200086f565b62000879565b6200086f565b9050919050565b6000819050919050565b620008c08362000883565b620008d8620008cf82620008ab565b84845462000819565b825550505050565b600090565b620008ef620008e0565b620008fc818484620008b5565b505050565b5b81811015620009245762000918600082620008e5565b60018101905062000902565b5050565b601f82111562000973576200093d81620007e7565b6200094884620007fc565b8101602085101562000958578190505b620009706200096785620007fc565b83018262000901565b50505b505050565b600082821c905092915050565b6000620009986000198460080262000978565b1980831691505092915050565b6000620009b3838362000985565b9150826002028217905092915050565b620009ce8262000749565b67ffffffffffffffff811115620009ea57620009e962000754565b5b620009f68254620007b2565b62000a0382828562000928565b600060209050601f83116001811462000a3b576000841562000a26578287015190505b62000a328582620009a5565b86555062000aa2565b601f19841662000a4b86620007e7565b60005b8281101562000a755784890151825560018201915060208501945060208101905062000a4e565b8683101562000a95578489015162000a91601f89168262000985565b8355505b6001600288020188555050505b505050505050565b62000ab581620006d2565b82525050565b600060208201905062000ad2600083018462000aaa565b92915050565b600082825260208201905092915050565b7f54726561737572792063616e6e6f74206265207a65726f206164647265737300600082015250565b600062000b21601f8362000ad8565b915062000b2e8262000ae9565b602082019050919050565b6000602082019050818103600083015262000b548162000b12565b9050919050565b7f4e487b7100000000000000000000000000000000000000000000000000000000600052601160045260246000fd5b60008160011c9050919050565b6000808291508390505b600185111562000be95780860481111562000bc15762000bc062000b5b565b5b600185161562000bd15780820291505b808102905062000be18562000b8a565b945062000ba1565b94509492505050565b60008262000c04576001905062000cd7565b8162000c14576000905062000cd7565b816001811462000c2d576002811462000c385762000c6e565b600191505062000cd7565b60ff84111562000c4d5762000c4c62000b5b565b5b8360020a91508482111562000c675762000c6662000b5b565b5b5062000cd7565b5060208310610133831016604e8410600b841016171562000ca85782820a90508381111562000ca25762000ca162000b5b565b5b62000cd7565b62000cb7848484600162000b97565b9250905081840481111562000cd15762000cd062000b5b565b5b81810290505b9392505050565b600060ff82169050919050565b600062000cf8826200086f565b915062000d058362000cde565b925062000d347fffffffffffffffffffffffffffffffffffffffffffffffffffffffffffffffff848462000bf2565b905092915050565b600062000d49826200086f565b915062000d56836200086f565b925082820262000d66816200086f565b9150828204841483151762000d805762000d7f62000b5b565b5b5092915050565b600062000d94826200086f565b915062000da1836200086f565b925082820190508082111562000dbc5762000dbb62000b5b565b5b92915050565b62000dcd816200086f565b82525050565b600060608201905062000dea600083018662000aaa565b62000df9602083018562000dc2565b62000e08604083018462000dc2565b949350505050565b600060208201905062000e27600083018462000dc2565b92915050565b6080516122bf62000e576000396000818161093c01528181610a680152610fb201526122bf6000f3fe608060405234801561001057600080fd5b50600436106101165760003560e01c8063797fd8f0116100a2578063a9059cbb11610071578063a9059cbb146102c3578063c9567bf9146102f3578063dd62ed3e146102fd578063f2fde38b1461032d578063fdf7ddd61461034957610116565b8063797fd8f01461024b5780637daa930a146102695780638da5cb5b1461028757806395d89b41146102a557610116565b8063313ce567116100e9578063313ce567146101b757806361d027b3146101d557806370a08231146101f3578063715018a61461022357806372614e991461022d57610116565b806306fdde031461011b578063095ea7b31461013957806318160ddd1461016957806323b872dd14610187575b600080fd5b610123610367565b6040516101309190611bd3565b60405180910390f35b610153600480360381019061014e9190611c8e565b6103f9565b6040516101609190611ce9565b60405180910390f35b61017161041c565b60405161017e9190611d13565b60405180910390f35b6101a1600480360381019061019c9190611d2e565b610426565b6040516101ae9190611ce9565b60405180910390f35b6101bf610a5d565b6040516101cc9190611d9d565b60405180910390f35b6101dd610a66565b6040516101ea9190611dc7565b60405180910390f35b61020d60048036038101906102089190611de2565b610a8a565b60405161021a9190611d13565b60405180910390f35b61022b610ad2565b005b610235610ae6565b6040516102429190611d13565b60405180910390f35b610253610aeb565b6040516102609190611d13565b60405180910390f35b610271610af0565b60405161027e9190611ce9565b60405180910390f35b61028f610b03565b60405161029c9190611dc7565b60405180910390f35b6102ad610b2d565b6040516102ba9190611bd3565b60405180910390f35b6102dd60048036038101906102d89190611c8e565b610bbf565b6040516102ea9190611ce9565b60405180910390f35b6102fb6110df565b005b61031760048036038101906103129190611e0f565b61120f565b6040516103249190611d13565b60405180910390f35b61034760048036038101906103429190611de2565b611296565b005b61035161131c565b60405161035e9190611d13565b60405180910390f35b60606003805461037690611e7e565b80601f01602080910402602001604051908101604052809291908181526020018280546103a290611e7e565b80156103ef5780601f106103c4576101008083540402835291602001916103ef565b820191906000526020600020905b8154815290600101906020018083116103d257829003601f168201915b5050505050905090565b600080610404611322565b905061041181858561132a565b600191505092915050565b6000600254905090565b600061043c67e2dbe393c885491f60c01b61133c565b61045067b989101ae4b66a2660c01b61133c565b6104646746cb3a60a42f242660c01b61133c565b610478678cdbdd9740ff4d2060c01b61133c565b61048c67a1104f6a592e175060c01b61133c565b600760009054906101000a900460ff166104db576040517f08c379a00000000000000000000000000000000000000000000000000000000081526004016104d290611efb565b60405180910390fd5b6104ef67df39a72f470e2cac60c01b61133c565b610503672972b4bb9016920c60c01b61133c565b610517672e8107526626745660c01b61133c565b61052b674a68c3178ed4e45860c01b61133c565b61053f675c06245b2584dc8660c01b61133c565b61055367b0e79007895cd23860c01b61133c565b600061056685610561611322565b61120f565b905061057c67ca9a73b82a8f14ac60c01b61133c565b61059067ac3c79781b2a6ad760c01b61133c565b8281101561060a576105ac673cd4e2061335ffd760c01b61133c565b6105c0678bc3561a928eee6d60c01b61133c565b846105c9611322565b84836040517f2817560a0000000000000000000000000000000000000000000000000000000081526004016106019493929190611f1b565b60405180910390fd5b61061e676a4a7e4ef1f2190760c01b61133c565b61063267ef30c4ef5d4c79ad60c01b61133c565b6106466714a6cde324a4d10460c01b61133c565b61066385610652611322565b858461065e9190611f8f565b61132a565b61067767aaa88ec6ad9f982d60c01b61133c565b61068b67d9901db29430b10a60c01b61133c565b61069f678b152461d93e904560c01b61133c565b826106a986610a8a565b10156106ea576040517f08c379a00000000000000000000000000000000000000000000000000000000081526004016106e190612035565b60405180910390fd5b6106fe67cb1fa692b3e3419760c01b61133c565b6107126714e9476df36fccbd60c01b61133c565b6107266790f106e8fe4492eb60c01b61133c565b61073a67dc88b3f917b66b2860c01b61133c565b600073ffffffffffffffffffffffffffffffffffffffff168473ffffffffffffffffffffffffffffffffffffffff16036107a9576040517f08c379a00000000000000000000000000000000000000000000000000000000081526004016107a0906120c7565b60405180910390fd5b6107bd679fe44c461e0d32fc60c01b61133c565b6107d167e3d77769863daf9b60c01b61133c565b6107e567e520a4c4616e5f6f60c01b61133c565b6000806107f18561133f565b91509150610809678c9ae7528548b5e660c01b61133c565b61081d6787b1b6c1081d080f60c01b61133c565b600081838761082c9190611f8f565b6108369190611f8f565b905061084c674c635d232e27727560c01b61133c565b61086067f2f18b2e0cbace7260c01b61133c565b60008311156108b45761087d67269f403a28b1b72960c01b61133c565b610891673e89288d567815bc60c01b61133c565b6108a567a6daf36e3f63cb5160c01b61133c565b6108af8884611484565b6108c9565b6108c8673d8c05e88fbb484f60c01b61133c565b5b6108dd674105c48888570d2160c01b61133c565b6108f167c0fb0a56d0c3db7760c01b61133c565b60008211156109665761090e67a9531aece1e111a160c01b61133c565b61092267017d49db92d6645a60c01b61133c565b61093667889eb0079173954960c01b61133c565b610961887f000000000000000000000000000000000000000000000000000000000000000084611506565b61097b565b61097a6783088914d397945060c01b61133c565b5b61098f6767850a9446ddf2a560c01b61133c565b6109a367ab68a0cdd57aa49660c01b61133c565b6109ae888883611506565b6109c2679f5198e2d931fa2160c01b61133c565b6109d667da14c75b78b6b41560c01b61133c565b8773ffffffffffffffffffffffffffffffffffffffff167fa6b7d7885e75fafb205114d74135904f557437647ebcbb720fad77c6869c18358484604051610a1e9291906120e7565b60405180910390a2610a3a67acd9f419e5d610f260c01b61133c565b610a4e6734ca50c521e4dfac60c01b61133c565b60019450505050509392505050565b60006012905090565b7f000000000000000000000000000000000000000000000000000000000000000081565b60008060008373ffffffffffffffffffffffffffffffffffffffff1673ffffffffffffffffffffffffffffffffffffffff168152602001908152602001600020549050919050565b610ada6115fa565b610ae46000611681565b565b600a81565b606381565b600760009054906101000a900460ff1681565b6000600560009054906101000a900473ffffffffffffffffffffffffffffffffffffffff16905090565b606060048054610b3c90611e7e565b80601f0160208091040260200160405190810160405280929190818152602001828054610b6890611e7e565b8015610bb55780601f10610b8a57610100808354040283529160200191610bb5565b820191906000526020600020905b815481529060010190602001808311610b9857829003601f168201915b5050505050905090565b6000610bd5679a59af57ebfd12c060c01b61133c565b610be967b989101ae4b66a2660c01b61133c565b610bfd6746cb3a60a42f242660c01b61133c565b610c11678cdbdd9740ff4d2060c01b61133c565b610c2567a1104f6a592e175060c01b61133c565b600760009054906101000a900460ff16610c74576040517f08c379a0000000000000000000000000000000000000000000000000000000008152600401610c6b90611efb565b60405180910390fd5b610c8867df39a72f470e2cac60c01b61133c565b610c9c672972b4bb9016920c60c01b61133c565b610cb06739abdd429d6be58f60c01b61133c565b610cc467bbf2fc6fb9c4a27360c01b61133c565b610cd867822e02da47fee12260c01b61133c565b610cec67cc2976cf3820e78760c01b61133c565b610d00674ba8625c4626fc1260c01b61133c565b81610d11610d0c611322565b610a8a565b1015610d52576040517f08c379a0000000000000000000000000000000000000000000000000000000008152600401610d4990612035565b60405180910390fd5b610d66672a88d8bf8c594c8460c01b61133c565b610d7a672fb8ed620955516460c01b61133c565b610d8e676ca7be3eeb9c2ecd60c01b61133c565b610da2673cf35122cdfb178a60c01b61133c565b600073ffffffffffffffffffffffffffffffffffffffff168373ffffffffffffffffffffffffffffffffffffffff1603610e11576040517f08c379a0000000000000000000000000000000000000000000000000000000008152600401610e08906120c7565b60405180910390fd5b610e25672449acdaf4e024ee60c01b61133c565b610e3967eb275690d8d1c8e360c01b61133c565b610e4d678d41ac62acf171d660c01b61133c565b600080610e598461133f565b91509150610e71674c9a26aca0684e7d60c01b61133c565b610e85674be85b7922229e9f60c01b61133c565b6000818386610e949190611f8f565b610e9e9190611f8f565b9050610eb4678042f5290f13641a60c01b61133c565b610ec8672a39eea4313b884a60c01b61133c565b6000831115610f2357610ee567d55b2e5c9d93f7c860c01b61133c565b610ef9672962e8d69aee3d9760c01b61133c565b610f0d67b9c318b74f65c2af60c01b61133c565b610f1e610f18611322565b84611484565b610f38565b610f3767e7281448a35a57ff60c01b61133c565b5b610f4c67653126973f94b14360c01b61133c565b610f6067f3eb088a2d271c5660c01b61133c565b6000821115610fdc57610f7d6760f5d05f3a99382960c01b61133c565b610f916706d557337610381960c01b61133c565b610fa5671e066a970e78606660c01b61133c565b610fd7610fb0611322565b7f000000000000000000000000000000000000000000000000000000000000000084611506565b610ff1565b610ff067f642f9f56c27a42160c01b61133c565b5b611005677ef6f52a45cf0e9360c01b61133c565b61101967a938e9d382ed009960c01b61133c565b61102b611024611322565b8783611506565b61103f67fe764f8a70b0219760c01b61133c565b611053670d6e0ab54ac43e7560c01b61133c565b61105b611322565b73ffffffffffffffffffffffffffffffffffffffff167fa6b7d7885e75fafb205114d74135904f557437647ebcbb720fad77c6869c183584846040516110a29291906120e7565b60405180910390a26110be67c9c9fe7ca4e5bb2760c01b61133c565b6110d2671e38cf56ea8ed88660c01b61133c565b6001935050505092915050565b6110f367a4ac02faf69eb1de60c01b61133c565b6110fb6115fa565b61110f674da35ae0e401bfe460c01b61133c565b611123674834f0393e64ffc660c01b61133c565b61113767b1b521d4b59786aa60c01b61133c565b61114b67e00ea5779300d20160c01b61133c565b61115f67c46844db06154ef060c01b61133c565b600760009054906101000a900460ff16156111af576040517f08c379a00000000000000000000000000000000000000000000000000000000081526004016111a69061215c565b60405180910390fd5b6111c36734e0f6afd57d9ec160c01b61133c565b6111d7677323a322775707c260c01b61133c565b6001600760006101000a81548160ff0219169083151502179055506112066747fcd726c6daccf460c01b61133c565b43600681905550565b6000600160008473ffffffffffffffffffffffffffffffffffffffff1673ffffffffffffffffffffffffffffffffffffffff16815260200190815260200160002060008373ffffffffffffffffffffffffffffffffffffffff1673ffffffffffffffffffffffffffffffffffffffff16815260200190815260200160002054905092915050565b61129e6115fa565b600073ffffffffffffffffffffffffffffffffffffffff168173ffffffffffffffffffffffffffffffffffffffff16036113105760006040517f1e4fbdf70000000000000000000000000000000000000000000000000000000081526004016113079190611dc7565b60405180910390fd5b61131981611681565b50565b60065481565b600033905090565b6113378383836001611747565b505050565b50565b60008061135667afc46564e24c3dd460c01b61133c565b61136a67cbf07d95e39ea9b960c01b61133c565b61137e674f38d8d6fd0043a760c01b61133c565b600760009054906101000a900460ff1680156113a75750600a6006546113a4919061217c565b43105b1561140c576113c067d70e9b0c94da9b0760c01b61133c565b6113d467dda5a8079a163fb860c01b61133c565b600091506113ec674b1015ed7e60a22860c01b61133c565b60646063846113fb91906121b0565b6114059190612221565b905061147f565b61142067af57042997bd5ff960c01b61133c565b61143467857d269b20f3465460c01b61133c565b606460028461144391906121b0565b61144d9190612221565b9150611463676acb6211e0af081560c01b61133c565b606460028461147291906121b0565b61147c9190612221565b90505b915091565b600073ffffffffffffffffffffffffffffffffffffffff168273ffffffffffffffffffffffffffffffffffffffff16036114f65760006040517f96c6fd1e0000000000000000000000000000000000000000000000000000000081526004016114ed9190611dc7565b60405180910390fd5b6115028260008361191e565b5050565b600073ffffffffffffffffffffffffffffffffffffffff168373ffffffffffffffffffffffffffffffffffffffff16036115785760006040517f96c6fd1e00000000000000000000000000000000000000000000000000000000815260040161156f9190611dc7565b60405180910390fd5b600073ffffffffffffffffffffffffffffffffffffffff168273ffffffffffffffffffffffffffffffffffffffff16036115ea5760006040517fec442f050000000000000000000000000000000000000000000000000000000081526004016115e19190611dc7565b60405180910390fd5b6115f583838361191e565b505050565b611602611322565b73ffffffffffffffffffffffffffffffffffffffff16611620610b03565b73ffffffffffffffffffffffffffffffffffffffff161461167f57611643611322565b6040517f118cdaa70000000000000000000000000000000000000000000000000000000081526004016116769190611dc7565b60405180910390fd5b565b6000600560009054906101000a900473ffffffffffffffffffffffffffffffffffffffff16905081600560006101000a81548173ffffffffffffffffffffffffffffffffffffffff021916908373ffffffffffffffffffffffffffffffffffffffff1602179055508173ffffffffffffffffffffffffffffffffffffffff168173ffffffffffffffffffffffffffffffffffffffff167f8be0079c531659141344cd1fd0a4f28419497f9722a3daafe3b4186f6b6457e060405160405180910390a35050565b600073ffffffffffffffffffffffffffffffffffffffff168473ffffffffffffffffffffffffffffffffffffffff16036117b95760006040517fe602df050000000000000000000000000000000000000000000000000000000081526004016117b09190611dc7565b60405180910390fd5b600073ffffffffffffffffffffffffffffffffffffffff168373ffffffffffffffffffffffffffffffffffffffff160361182b5760006040517f94280d620000000000000000000000000000000000000000000000000000000081526004016118229190611dc7565b60405180910390fd5b81600160008673ffffffffffffffffffffffffffffffffffffffff1673ffffffffffffffffffffffffffffffffffffffff16815260200190815260200160002060008573ffffffffffffffffffffffffffffffffffffffff1673ffffffffffffffffffffffffffffffffffffffff168152602001908152602001600020819055508015611918578273ffffffffffffffffffffffffffffffffffffffff168473ffffffffffffffffffffffffffffffffffffffff167f8c5be1e5ebec7d5bd14f71427d1e84f3dd0314c0f7b2291e5b200ac8c7c3b9258460405161190f9190611d13565b60405180910390a35b50505050565b600073ffffffffffffffffffffffffffffffffffffffff168373ffffffffffffffffffffffffffffffffffffffff1603611970578060026000828254611964919061217c565b92505081905550611a43565b60008060008573ffffffffffffffffffffffffffffffffffffffff1673ffffffffffffffffffffffffffffffffffffffff168152602001908152602001600020549050818110156119fc578381836040517fe450d38c0000000000000000000000000000000000000000000000000000000081526004016119f393929190612252565b60405180910390fd5b8181036000808673ffffffffffffffffffffffffffffffffffffffff1673ffffffffffffffffffffffffffffffffffffffff16815260200190815260200160002081905550505b600073ffffffffffffffffffffffffffffffffffffffff168273ffffffffffffffffffffffffffffffffffffffff1603611a8c5780600260008282540392505081905550611ad9565b806000808473ffffffffffffffffffffffffffffffffffffffff1673ffffffffffffffffffffffffffffffffffffffff168152602001908152602001600020600082825401925050819055505b8173ffffffffffffffffffffffffffffffffffffffff168373ffffffffffffffffffffffffffffffffffffffff167fddf252ad1be2c89b69c2b068fc378daa952ba7f163c4a11628f55a4df523b3ef83604051611b369190611d13565b60405180910390a3505050565b600081519050919050565b600082825260208201905092915050565b60005b83811015611b7d578082015181840152602081019050611b62565b60008484015250505050565b6000601f19601f8301169050919050565b6000611ba582611b43565b611baf8185611b4e565b9350611bbf818560208601611b5f565b611bc881611b89565b840191505092915050565b60006020820190508181036000830152611bed8184611b9a565b905092915050565b600080fd5b600073ffffffffffffffffffffffffffffffffffffffff82169050919050565b6000611c2582611bfa565b9050919050565b611c3581611c1a565b8114611c4057600080fd5b50565b600081359050611c5281611c2c565b92915050565b6000819050919050565b611c6b81611c58565b8114611c7657600080fd5b50565b600081359050611c8881611c62565b92915050565b60008060408385031215611ca557611ca4611bf5565b5b6000611cb385828601611c43565b9250506020611cc485828601611c79565b9150509250929050565b60008115159050919050565b611ce381611cce565b82525050565b6000602082019050611cfe6000830184611cda565b92915050565b611d0d81611c58565b82525050565b6000602082019050611d286000830184611d04565b92915050565b600080600060608486031215611d4757611d46611bf5565b5b6000611d5586828701611c43565b9350506020611d6686828701611c43565b9250506040611d7786828701611c79565b9150509250925092565b600060ff82169050919050565b611d9781611d81565b82525050565b6000602082019050611db26000830184611d8e565b92915050565b611dc181611c1a565b82525050565b6000602082019050611ddc6000830184611db8565b92915050565b600060208284031215611df857611df7611bf5565b5b6000611e0684828501611c43565b91505092915050565b60008060408385031215611e2657611e25611bf5565b5b6000611e3485828601611c43565b9250506020611e4585828601611c43565b9150509250929050565b7f4e487b7100000000000000000000000000000000000000000000000000000000600052602260045260246000fd5b60006002820490506001821680611e9657607f821691505b602082108103611ea957611ea8611e4f565b5b50919050565b7f54726164696e67206e6f74206f70656e00000000000000000000000000000000600082015250565b6000611ee5601083611b4e565b9150611ef082611eaf565b602082019050919050565b60006020820190508181036000830152611f1481611ed8565b9050919050565b6000608082019050611f306000830187611db8565b611f3d6020830186611db8565b611f4a6040830185611d04565b611f576060830184611d04565b95945050505050565b7f4e487b7100000000000000000000000000000000000000000000000000000000600052601160045260246000fd5b6000611f9a82611c58565b9150611fa583611c58565b9250828203905081811115611fbd57611fbc611f60565b5b92915050565b7f45524332303a207472616e7366657220616d6f756e742065786365656473206260008201527f616c616e63650000000000000000000000000000000000000000000000000000602082015250565b600061201f602683611b4e565b915061202a82611fc3565b604082019050919050565b6000602082019050818103600083015261204e81612012565b9050919050565b7f45524332303a207472616e7366657220746f20746865207a65726f206164647260008201527f6573730000000000000000000000000000000000000000000000000000000000602082015250565b60006120b1602383611b4e565b91506120bc82612055565b604082019050919050565b600060208201905081810360008301526120e0816120a4565b9050919050565b60006040820190506120fc6000830185611d04565b6121096020830184611d04565b9392505050565b7f416c7265616479206f70656e6564000000000000000000000000000000000000600082015250565b6000612146600e83611b4e565b915061215182612110565b602082019050919050565b6000602082019050818103600083015261217581612139565b9050919050565b600061218782611c58565b915061219283611c58565b92508282019050808211156121aa576121a9611f60565b5b92915050565b60006121bb82611c58565b91506121c683611c58565b92508282026121d481611c58565b915082820484148315176121eb576121ea611f60565b5b5092915050565b7f4e487b7100000000000000000000000000000000000000000000000000000000600052601260045260246000fd5b600061222c82611c58565b915061223783611c58565b925082612247576122466121f2565b5b828204905092915050565b60006060820190506122676000830186611db8565b6122746020830185611d04565b6122816040830184611d04565b94935050505056fea2646970667358221220b04cfaa22b807552dac518b8c7f8386e5c063c9f6aad17bc4f23d159070f494c64736f6c63430008180033","opcodes":"PUSH1 0xA0 PUSH1 0x40 MSTORE CALLVALUE DUP1 ISZERO PUSH3 0x11 JUMPI PUSH1 0x0 DUP1 REVERT JUMPDEST POP PUSH1 0x40 MLOAD PUSH3 0x3116 CODESIZE SUB DUP1 PUSH3 0x3116 DUP4 CODECOPY DUP2 DUP2 ADD PUSH1 0x40 MSTORE DUP2 ADD SWAP1 PUSH3 0x37 SWAP2 SWAP1 PUSH3 0x717 JUMP JUMPDEST CALLER PUSH1 0x40 MLOAD DUP1 PUSH1 0x40 ADD PUSH1 0x40 MSTORE DUP1 PUSH1 0xB DUP2 MSTORE PUSH1 0x20 ADD PUSH32 0x50756C7365496E76657374000000000000000000000000000000000000000000 DUP2 MSTORE POP PUSH1 0x40 MLOAD DUP1 PUSH1 0x40 ADD PUSH1 0x40 MSTORE DUP1 PUSH1 0x4 DUP2 MSTORE PUSH1 0x20 ADD PUSH32 0x50494E5600000000000000000000000000000000000000000000000000000000 DUP2 MSTORE POP DUP2 PUSH1 0x3 SWAP1 DUP2 PUSH3 0xB5 SWAP2 SWAP1 PUSH3 0x9C3 JUMP JUMPDEST POP DUP1 PUSH1 0x4 SWAP1 DUP2 PUSH3 0xC7 SWAP2 SWAP1 PUSH3 0x9C3 JUMP JUMPDEST POP POP POP PUSH1 0x0 PUSH20 0xFFFFFFFFFFFFFFFFFFFFFFFFFFFFFFFFFFFFFFFF AND DUP2 PUSH20 0xFFFFFFFFFFFFFFFFFFFFFFFFFFFFFFFFFFFFFFFF AND SUB PUSH3 0x13F JUMPI PUSH1 0x0 PUSH1 0x40 MLOAD PUSH32 0x1E4FBDF700000000000000000000000000000000000000000000000000000000 DUP2 MSTORE PUSH1 0x4 ADD PUSH3 0x136 SWAP2 SWAP1 PUSH3 0xABB JUMP JUMPDEST PUSH1 0x40 MLOAD DUP1 SWAP2 SUB SWAP1 REVERT JUMPDEST PUSH3 0x150 DUP2 PUSH3 0x31E PUSH1 0x20 SHL PUSH1 0x20 SHR JUMP JUMPDEST POP PUSH3 0x16D PUSH8 0x6EFA92A6333B5A2A PUSH1 0xC0 SHL PUSH3 0x3E4 PUSH1 0x20 SHL PUSH1 0x20 SHR JUMP JUMPDEST PUSH3 0x189 PUSH8 0x22E680CD62B80045 PUSH1 0xC0 SHL PUSH3 0x3E4 PUSH1 0x20 SHL PUSH1 0x20 SHR JUMP JUMPDEST PUSH3 0x1A5 PUSH8 0x4193F8F8A4ED2D63 PUSH1 0xC0 SHL PUSH3 0x3E4 PUSH1 0x20 SHL PUSH1 0x20 SHR JUMP JUMPDEST PUSH3 0x1C1 PUSH8 0x746369B821978651 PUSH1 0xC0 SHL PUSH3 0x3E4 PUSH1 0x20 SHL PUSH1 0x20 SHR JUMP JUMPDEST PUSH1 0x0 PUSH20 0xFFFFFFFFFFFFFFFFFFFFFFFFFFFFFFFFFFFFFFFF AND DUP2 PUSH20 0xFFFFFFFFFFFFFFFFFFFFFFFFFFFFFFFFFFFFFFFF AND SUB PUSH3 0x233 JUMPI PUSH1 0x40 MLOAD PUSH32 0x8C379A000000000000000000000000000000000000000000000000000000000 DUP2 MSTORE PUSH1 0x4 ADD PUSH3 0x22A SWAP1 PUSH3 0xB39 JUMP JUMPDEST PUSH1 0x40 MLOAD DUP1 SWAP2 SUB SWAP1 REVERT JUMPDEST PUSH3 0x24F PUSH8 0x32028B3F1FE5BA30 PUSH1 0xC0 SHL PUSH3 0x3E4 PUSH1 0x20 SHL PUSH1 0x20 SHR JUMP JUMPDEST PUSH3 0x26B PUSH8 0xBDDAFD5D742EE216 PUSH1 0xC0 SHL PUSH3 0x3E4 PUSH1 0x20 SHL PUSH1 0x20 SHR JUMP JUMPDEST DUP1 PUSH20 0xFFFFFFFFFFFFFFFFFFFFFFFFFFFFFFFFFFFFFFFF AND PUSH1 0x80 DUP2 PUSH20 0xFFFFFFFFFFFFFFFFFFFFFFFFFFFFFFFFFFFFFFFF AND DUP2 MSTORE POP POP PUSH3 0x2BB PUSH8 0x2C9CFE13E3F47DFA PUSH1 0xC0 SHL PUSH3 0x3E4 PUSH1 0x20 SHL PUSH1 0x20 SHR JUMP JUMPDEST PUSH3 0x2D7 PUSH8 0xEB984009B3AFE30B PUSH1 0xC0 SHL PUSH3 0x3E4 PUSH1 0x20 SHL PUSH1 0x20 SHR JUMP JUMPDEST PUSH3 0x317 CALLER PUSH3 0x2EC PUSH3 0x3E7 PUSH1 0x20 SHL PUSH1 0x20 SHR JUMP JUMPDEST PUSH1 0xA PUSH3 0x2FA SWAP2 SWAP1 PUSH3 0xCEB JUMP JUMPDEST PUSH4 0x1406F40 PUSH3 0x30B SWAP2 SWAP1 PUSH3 0xD3C JUMP JUMPDEST PUSH3 0x3F0 PUSH1 0x20 SHL PUSH1 0x20 SHR JUMP JUMPDEST POP PUSH3 0xE2D JUMP JUMPDEST PUSH1 0x0 PUSH1 0x5 PUSH1 0x0 SWAP1 SLOAD SWAP1 PUSH2 0x100 EXP SWAP1 DIV PUSH20 0xFFFFFFFFFFFFFFFFFFFFFFFFFFFFFFFFFFFFFFFF AND SWAP1 POP DUP2 PUSH1 0x5 PUSH1 0x0 PUSH2 0x100 EXP DUP2 SLOAD DUP2 PUSH20 0xFFFFFFFFFFFFFFFFFFFFFFFFFFFFFFFFFFFFFFFF MUL NOT AND SWAP1 DUP4 PUSH20 0xFFFFFFFFFFFFFFFFFFFFFFFFFFFFFFFFFFFFFFFF AND MUL OR SWAP1 SSTORE POP DUP2 PUSH20 0xFFFFFFFFFFFFFFFFFFFFFFFFFFFFFFFFFFFFFFFF AND DUP2 PUSH20 0xFFFFFFFFFFFFFFFFFFFFFFFFFFFFFFFFFFFFFFFF AND PUSH32 0x8BE0079C531659141344CD1FD0A4F28419497F9722A3DAAFE3B4186F6B6457E0 PUSH1 0x40 MLOAD PUSH1 0x40 MLOAD DUP1 SWAP2 SUB SWAP1 LOG3 POP POP JUMP JUMPDEST POP JUMP JUMPDEST PUSH1 0x0 PUSH1 0x12 SWAP1 POP SWAP1 JUMP JUMPDEST PUSH1 0x0 PUSH20 0xFFFFFFFFFFFFFFFFFFFFFFFFFFFFFFFFFFFFFFFF AND DUP3 PUSH20 0xFFFFFFFFFFFFFFFFFFFFFFFFFFFFFFFFFFFFFFFF AND SUB PUSH3 0x465 JUMPI PUSH1 0x0 PUSH1 0x40 MLOAD PUSH32 0xEC442F0500000000000000000000000000000000000000000000000000000000 DUP2 MSTORE PUSH1 0x4 ADD PUSH3 0x45C SWAP2 SWAP1 PUSH3 0xABB JUMP JUMPDEST PUSH1 0x40 MLOAD DUP1 SWAP2 SUB SWAP1 REVERT JUMPDEST PUSH3 0x479 PUSH1 0x0 DUP4 DUP4 PUSH3 0x47D PUSH1 0x20 SHL PUSH1 0x20 SHR JUMP JUMPDEST POP POP JUMP JUMPDEST PUSH1 0x0 PUSH20 0xFFFFFFFFFFFFFFFFFFFFFFFFFFFFFFFFFFFFFFFF AND DUP4 PUSH20 0xFFFFFFFFFFFFFFFFFFFFFFFFFFFFFFFFFFFFFFFF AND SUB PUSH3 0x4D3 JUMPI DUP1 PUSH1 0x2 PUSH1 0x0 DUP3 DUP3 SLOAD PUSH3 0x4C6 SWAP2 SWAP1 PUSH3 0xD87 JUMP JUMPDEST SWAP3 POP POP DUP2 SWAP1 SSTORE POP PUSH3 0x5A9 JUMP JUMPDEST PUSH1 0x0 DUP1 PUSH1 0x0 DUP6 PUSH20 0xFFFFFFFFFFFFFFFFFFFFFFFFFFFFFFFFFFFFFFFF AND PUSH20 0xFFFFFFFFFFFFFFFFFFFFFFFFFFFFFFFFFFFFFFFF AND DUP2 MSTORE PUSH1 0x20 ADD SWAP1 DUP2 MSTORE PUSH1 0x20 ADD PUSH1 0x0 KECCAK256 SLOAD SWAP1 POP DUP2 DUP2 LT ISZERO PUSH3 0x562 JUMPI DUP4 DUP2 DUP4 PUSH1 0x40 MLOAD PUSH32 0xE450D38C00000000000000000000000000000000000000000000000000000000 DUP2 MSTORE PUSH1 0x4 ADD PUSH3 0x559 SWAP4 SWAP3 SWAP2 SWAP1 PUSH3 0xDD3 JUMP JUMPDEST PUSH1 0x40 MLOAD DUP1 SWAP2 SUB SWAP1 REVERT JUMPDEST DUP2 DUP2 SUB PUSH1 0x0 DUP1 DUP7 PUSH20 0xFFFFFFFFFFFFFFFFFFFFFFFFFFFFFFFFFFFFFFFF AND PUSH20 0xFFFFFFFFFFFFFFFFFFFFFFFFFFFFFFFFFFFFFFFF AND DUP2 MSTORE PUSH1 0x20 ADD SWAP1 DUP2 MSTORE PUSH1 0x20 ADD PUSH1 0x0 KECCAK256 DUP2 SWAP1 SSTORE POP POP JUMPDEST PUSH1 0x0 PUSH20 0xFFFFFFFFFFFFFFFFFFFFFFFFFFFFFFFFFFFFFFFF AND DUP3 PUSH20 0xFFFFFFFFFFFFFFFFFFFFFFFFFFFFFFFFFFFFFFFF AND SUB PUSH3 0x5F4 JUMPI DUP1 PUSH1 0x2 PUSH1 0x0 DUP3 DUP3 SLOAD SUB SWAP3 POP POP DUP2 SWAP1 SSTORE POP PUSH3 0x641 JUMP JUMPDEST DUP1 PUSH1 0x0 DUP1 DUP5 PUSH20 0xFFFFFFFFFFFFFFFFFFFFFFFFFFFFFFFFFFFFFFFF AND PUSH20 0xFFFFFFFFFFFFFFFFFFFFFFFFFFFFFFFFFFFFFFFF AND DUP2 MSTORE PUSH1 0x20 ADD SWAP1 DUP2 MSTORE PUSH1 0x20 ADD PUSH1 0x0 KECCAK256 PUSH1 0x0 DUP3 DUP3 SLOAD ADD SWAP3 POP POP DUP2 SWAP1 SSTORE POP JUMPDEST DUP2 PUSH20 0xFFFFFFFFFFFFFFFFFFFFFFFFFFFFFFFFFFFFFFFF AND DUP4 PUSH20 0xFFFFFFFFFFFFFFFFFFFFFFFFFFFFFFFFFFFFFFFF AND PUSH32 0xDDF252AD1BE2C89B69C2B068FC378DAA952BA7F163C4A11628F55A4DF523B3EF DUP4 PUSH1 0x40 MLOAD PUSH3 0x6A0 SWAP2 SWAP1 PUSH3 0xE10 JUMP JUMPDEST PUSH1 0x40 MLOAD DUP1 SWAP2 SUB SWAP1 LOG3 POP POP POP JUMP JUMPDEST PUSH1 0x0 DUP1 REVERT JUMPDEST PUSH1 0x0 PUSH20 0xFFFFFFFFFFFFFFFFFFFFFFFFFFFFFFFFFFFFFFFF DUP3 AND SWAP1 POP SWAP2 SWAP1 POP JUMP JUMPDEST PUSH1 0x0 PUSH3 0x6DF DUP3 PUSH3 0x6B2 JUMP JUMPDEST SWAP1 POP SWAP2 SWAP1 POP JUMP JUMPDEST PUSH3 0x6F1 DUP2 PUSH3 0x6D2 JUMP JUMPDEST DUP2 EQ PUSH3 0x6FD JUMPI PUSH1 0x0 DUP1 REVERT JUMPDEST POP JUMP JUMPDEST PUSH1 0x0 DUP2 MLOAD SWAP1 POP PUSH3 0x711 DUP2 PUSH3 0x6E6 JUMP JUMPDEST SWAP3 SWAP2 POP POP JUMP JUMPDEST PUSH1 0x0 PUSH1 0x20 DUP3 DUP5 SUB SLT ISZERO PUSH3 0x730 JUMPI PUSH3 0x72F PUSH3 0x6AD JUMP JUMPDEST JUMPDEST PUSH1 0x0 PUSH3 0x740 DUP5 DUP3 DUP6 ADD PUSH3 0x700 JUMP JUMPDEST SWAP2 POP POP SWAP3 SWAP2 POP POP JUMP JUMPDEST PUSH1 0x0 DUP2 MLOAD SWAP1 POP SWAP2 SWAP1 POP JUMP JUMPDEST PUSH32 0x4E487B7100000000000000000000000000000000000000000000000000000000 PUSH1 0x0 MSTORE PUSH1 0x41 PUSH1 0x4 MSTORE PUSH1 0x24 PUSH1 0x0 REVERT JUMPDEST PUSH32 0x4E487B7100000000000000000000000000000000000000000000000000000000 PUSH1 0x0 MSTORE PUSH1 0x22 PUSH1 0x4 MSTORE PUSH1 0x24 PUSH1 0x0 REVERT JUMPDEST PUSH1 0x0 PUSH1 0x2 DUP3 DIV SWAP1 POP PUSH1 0x1 DUP3 AND DUP1 PUSH3 0x7CB JUMPI PUSH1 0x7F DUP3 AND SWAP2 POP JUMPDEST PUSH1 0x20 DUP3 LT DUP2 SUB PUSH3 0x7E1 JUMPI PUSH3 0x7E0 PUSH3 0x783 JUMP JUMPDEST JUMPDEST POP SWAP2 SWAP1 POP JUMP JUMPDEST PUSH1 0x0 DUP2 SWAP1 POP DUP2 PUSH1 0x0 MSTORE PUSH1 0x20 PUSH1 0x0 KECCAK256 SWAP1 POP SWAP2 SWAP1 POP JUMP JUMPDEST PUSH1 0x0 PUSH1 0x20 PUSH1 0x1F DUP4 ADD DIV SWAP1 POP SWAP2 SWAP1 POP JUMP JUMPDEST PUSH1 0x0 DUP3 DUP3 SHL SWAP1 POP SWAP3 SWAP2 POP POP JUMP JUMPDEST PUSH1 0x0 PUSH1 0x8 DUP4 MUL PUSH3 0x84B PUSH32 0xFFFFFFFFFFFFFFFFFFFFFFFFFFFFFFFFFFFFFFFFFFFFFFFFFFFFFFFFFFFFFFFF DUP3 PUSH3 0x80C JUMP JUMPDEST PUSH3 0x857 DUP7 DUP4 PUSH3 0x80C JUMP JUMPDEST SWAP6 POP DUP1 NOT DUP5 AND SWAP4 POP DUP1 DUP7 AND DUP5 OR SWAP3 POP POP POP SWAP4 SWAP3 POP POP POP JUMP JUMPDEST PUSH1 0x0 DUP2 SWAP1 POP SWAP2 SWAP1 POP JUMP JUMPDEST PUSH1 0x0 DUP2 SWAP1 POP SWAP2 SWAP1 POP JUMP JUMPDEST PUSH1 0x0 PUSH3 0x8A4 PUSH3 0x89E PUSH3 0x898 DUP5 PUSH3 0x86F JUMP JUMPDEST PUSH3 0x879 JUMP JUMPDEST PUSH3 0x86F JUMP JUMPDEST SWAP1 POP SWAP2 SWAP1 POP JUMP JUMPDEST PUSH1 0x0 DUP2 SWAP1 POP SWAP2 SWAP1 POP JUMP JUMPDEST PUSH3 0x8C0 DUP4 PUSH3 0x883 JUMP JUMPDEST PUSH3 0x8D8 PUSH3 0x8CF DUP3 PUSH3 0x8AB JUMP JUMPDEST DUP5 DUP5 SLOAD PUSH3 0x819 JUMP JUMPDEST DUP3 SSTORE POP POP POP POP JUMP JUMPDEST PUSH1 0x0 SWAP1 JUMP JUMPDEST PUSH3 0x8EF PUSH3 0x8E0 JUMP JUMPDEST PUSH3 0x8FC DUP2 DUP5 DUP5 PUSH3 0x8B5 JUMP JUMPDEST POP POP POP JUMP JUMPDEST JUMPDEST DUP2 DUP2 LT ISZERO PUSH3 0x924 JUMPI PUSH3 0x918 PUSH1 0x0 DUP3 PUSH3 0x8E5 JUMP JUMPDEST PUSH1 0x1 DUP2 ADD SWAP1 POP PUSH3 0x902 JUMP JUMPDEST POP POP JUMP JUMPDEST PUSH1 0x1F DUP3 GT ISZERO PUSH3 0x973 JUMPI PUSH3 0x93D DUP2 PUSH3 0x7E7 JUMP JUMPDEST PUSH3 0x948 DUP5 PUSH3 0x7FC JUMP JUMPDEST DUP2 ADD PUSH1 0x20 DUP6 LT ISZERO PUSH3 0x958 JUMPI DUP2 SWAP1 POP JUMPDEST PUSH3 0x970 PUSH3 0x967 DUP6 PUSH3 0x7FC JUMP JUMPDEST DUP4 ADD DUP3 PUSH3 0x901 JUMP JUMPDEST POP POP JUMPDEST POP POP POP JUMP JUMPDEST PUSH1 0x0 DUP3 DUP3 SHR SWAP1 POP SWAP3 SWAP2 POP POP JUMP JUMPDEST PUSH1 0x0 PUSH3 0x998 PUSH1 0x0 NOT DUP5 PUSH1 0x8 MUL PUSH3 0x978 JUMP JUMPDEST NOT DUP1 DUP4 AND SWAP2 POP POP SWAP3 SWAP2 POP POP JUMP JUMPDEST PUSH1 0x0 PUSH3 0x9B3 DUP4 DUP4 PUSH3 0x985 JUMP JUMPDEST SWAP2 POP DUP3 PUSH1 0x2 MUL DUP3 OR SWAP1 POP SWAP3 SWAP2 POP POP JUMP JUMPDEST PUSH3 0x9CE DUP3 PUSH3 0x749 JUMP JUMPDEST PUSH8 0xFFFFFFFFFFFFFFFF DUP2 GT ISZERO PUSH3 0x9EA JUMPI PUSH3 0x9E9 PUSH3 0x754 JUMP JUMPDEST JUMPDEST PUSH3 0x9F6 DUP3 SLOAD PUSH3 0x7B2 JUMP JUMPDEST PUSH3 0xA03 DUP3 DUP3 DUP6 PUSH3 0x928 JUMP JUMPDEST PUSH1 0x0 PUSH1 0x20 SWAP1 POP PUSH1 0x1F DUP4 GT PUSH1 0x1 DUP2 EQ PUSH3 0xA3B JUMPI PUSH1 0x0 DUP5 ISZERO PUSH3 0xA26 JUMPI DUP3 DUP8 ADD MLOAD SWAP1 POP JUMPDEST PUSH3 0xA32 DUP6 DUP3 PUSH3 0x9A5 JUMP JUMPDEST DUP7 SSTORE POP PUSH3 0xAA2 JUMP JUMPDEST PUSH1 0x1F NOT DUP5 AND PUSH3 0xA4B DUP7 PUSH3 0x7E7 JUMP JUMPDEST PUSH1 0x0 JUMPDEST DUP3 DUP2 LT ISZERO PUSH3 0xA75 JUMPI DUP5 DUP10 ADD MLOAD DUP3 SSTORE PUSH1 0x1 DUP3 ADD SWAP2 POP PUSH1 0x20 DUP6 ADD SWAP5 POP PUSH1 0x20 DUP2 ADD SWAP1 POP PUSH3 0xA4E JUMP JUMPDEST DUP7 DUP4 LT ISZERO PUSH3 0xA95 JUMPI DUP5 DUP10 ADD MLOAD PUSH3 0xA91 PUSH1 0x1F DUP10 AND DUP3 PUSH3 0x985 JUMP JUMPDEST DUP4 SSTORE POP JUMPDEST PUSH1 0x1 PUSH1 0x2 DUP9 MUL ADD DUP9 SSTORE POP POP POP JUMPDEST POP POP POP POP POP POP JUMP JUMPDEST PUSH3 0xAB5 DUP2 PUSH3 0x6D2 JUMP JUMPDEST DUP3 MSTORE POP POP JUMP JUMPDEST PUSH1 0x0 PUSH1 0x20 DUP3 ADD SWAP1 POP PUSH3 0xAD2 PUSH1 0x0 DUP4 ADD DUP5 PUSH3 0xAAA JUMP JUMPDEST SWAP3 SWAP2 POP POP JUMP JUMPDEST PUSH1 0x0 DUP3 DUP3 MSTORE PUSH1 0x20 DUP3 ADD SWAP1 POP SWAP3 SWAP2 POP POP JUMP JUMPDEST PUSH32 0x54726561737572792063616E6E6F74206265207A65726F206164647265737300 PUSH1 0x0 DUP3 ADD MSTORE POP JUMP JUMPDEST PUSH1 0x0 PUSH3 0xB21 PUSH1 0x1F DUP4 PUSH3 0xAD8 JUMP JUMPDEST SWAP2 POP PUSH3 0xB2E DUP3 PUSH3 0xAE9 JUMP JUMPDEST PUSH1 0x20 DUP3 ADD SWAP1 POP SWAP2 SWAP1 POP JUMP JUMPDEST PUSH1 0x0 PUSH1 0x20 DUP3 ADD SWAP1 POP DUP2 DUP2 SUB PUSH1 0x0 DUP4 ADD MSTORE PUSH3 0xB54 DUP2 PUSH3 0xB12 JUMP JUMPDEST SWAP1 POP SWAP2 SWAP1 POP JUMP JUMPDEST PUSH32 0x4E487B7100000000000000000000000000000000000000000000000000000000 PUSH1 0x0 MSTORE PUSH1 0x11 PUSH1 0x4 MSTORE PUSH1 0x24 PUSH1 0x0 REVERT JUMPDEST PUSH1 0x0 DUP2 PUSH1 0x1 SHR SWAP1 POP SWAP2 SWAP1 POP JUMP JUMPDEST PUSH1 0x0 DUP1 DUP3 SWAP2 POP DUP4 SWAP1 POP JUMPDEST PUSH1 0x1 DUP6 GT ISZERO PUSH3 0xBE9 JUMPI DUP1 DUP7 DIV DUP2 GT ISZERO PUSH3 0xBC1 JUMPI PUSH3 0xBC0 PUSH3 0xB5B JUMP JUMPDEST JUMPDEST PUSH1 0x1 DUP6 AND ISZERO PUSH3 0xBD1 JUMPI DUP1 DUP3 MUL SWAP2 POP JUMPDEST DUP1 DUP2 MUL SWAP1 POP PUSH3 0xBE1 DUP6 PUSH3 0xB8A JUMP JUMPDEST SWAP5 POP PUSH3 0xBA1 JUMP JUMPDEST SWAP5 POP SWAP5 SWAP3 POP POP POP JUMP JUMPDEST PUSH1 0x0 DUP3 PUSH3 0xC04 JUMPI PUSH1 0x1 SWAP1 POP PUSH3 0xCD7 JUMP JUMPDEST DUP2 PUSH3 0xC14 JUMPI PUSH1 0x0 SWAP1 POP PUSH3 0xCD7 JUMP JUMPDEST DUP2 PUSH1 0x1 DUP2 EQ PUSH3 0xC2D JUMPI PUSH1 0x2 DUP2 EQ PUSH3 0xC38 JUMPI PUSH3 0xC6E JUMP JUMPDEST PUSH1 0x1 SWAP2 POP POP PUSH3 0xCD7 JUMP JUMPDEST PUSH1 0xFF DUP5 GT ISZERO PUSH3 0xC4D JUMPI PUSH3 0xC4C PUSH3 0xB5B JUMP JUMPDEST JUMPDEST DUP4 PUSH1 0x2 EXP SWAP2 POP DUP5 DUP3 GT ISZERO PUSH3 0xC67 JUMPI PUSH3 0xC66 PUSH3 0xB5B JUMP JUMPDEST JUMPDEST POP PUSH3 0xCD7 JUMP JUMPDEST POP PUSH1 0x20 DUP4 LT PUSH2 0x133 DUP4 LT AND PUSH1 0x4E DUP5 LT PUSH1 0xB DUP5 LT AND OR ISZERO PUSH3 0xCA8 JUMPI DUP3 DUP3 EXP SWAP1 POP DUP4 DUP2 GT ISZERO PUSH3 0xCA2 JUMPI PUSH3 0xCA1 PUSH3 0xB5B JUMP JUMPDEST JUMPDEST PUSH3 0xCD7 JUMP JUMPDEST PUSH3 0xCB7 DUP5 DUP5 DUP5 PUSH1 0x1 PUSH3 0xB97 JUMP JUMPDEST SWAP3 POP SWAP1 POP DUP2 DUP5 DIV DUP2 GT ISZERO PUSH3 0xCD1 JUMPI PUSH3 0xCD0 PUSH3 0xB5B JUMP JUMPDEST JUMPDEST DUP2 DUP2 MUL SWAP1 POP JUMPDEST SWAP4 SWAP3 POP POP POP JUMP JUMPDEST PUSH1 0x0 PUSH1 0xFF DUP3 AND SWAP1 POP SWAP2 SWAP1 POP JUMP JUMPDEST PUSH1 0x0 PUSH3 0xCF8 DUP3 PUSH3 0x86F JUMP JUMPDEST SWAP2 POP PUSH3 0xD05 DUP4 PUSH3 0xCDE JUMP JUMPDEST SWAP3 POP PUSH3 0xD34 PUSH32 0xFFFFFFFFFFFFFFFFFFFFFFFFFFFFFFFFFFFFFFFFFFFFFFFFFFFFFFFFFFFFFFFF DUP5 DUP5 PUSH3 0xBF2 JUMP JUMPDEST SWAP1 POP SWAP3 SWAP2 POP POP JUMP JUMPDEST PUSH1 0x0 PUSH3 0xD49 DUP3 PUSH3 0x86F JUMP JUMPDEST SWAP2 POP PUSH3 0xD56 DUP4 PUSH3 0x86F JUMP JUMPDEST SWAP3 POP DUP3 DUP3 MUL PUSH3 0xD66 DUP2 PUSH3 0x86F JUMP JUMPDEST SWAP2 POP DUP3 DUP3 DIV DUP5 EQ DUP4 ISZERO OR PUSH3 0xD80 JUMPI PUSH3 0xD7F PUSH3 0xB5B JUMP JUMPDEST JUMPDEST POP SWAP3 SWAP2 POP POP JUMP JUMPDEST PUSH1 0x0 PUSH3 0xD94 DUP3 PUSH3 0x86F JUMP JUMPDEST SWAP2 POP PUSH3 0xDA1 DUP4 PUSH3 0x86F JUMP JUMPDEST SWAP3 POP DUP3 DUP3 ADD SWAP1 POP DUP1 DUP3 GT ISZERO PUSH3 0xDBC JUMPI PUSH3 0xDBB PUSH3 0xB5B JUMP JUMPDEST JUMPDEST SWAP3 SWAP2 POP POP JUMP JUMPDEST PUSH3 0xDCD DUP2 PUSH3 0x86F JUMP JUMPDEST DUP3 MSTORE POP POP JUMP JUMPDEST PUSH1 0x0 PUSH1 0x60 DUP3 ADD SWAP1 POP PUSH3 0xDEA PUSH1 0x0 DUP4 ADD DUP7 PUSH3 0xAAA JUMP JUMPDEST PUSH3 0xDF9 PUSH1 0x20 DUP4 ADD DUP6 PUSH3 0xDC2 JUMP JUMPDEST PUSH3 0xE08 PUSH1 0x40 DUP4 ADD DUP5 PUSH3 0xDC2 JUMP JUMPDEST SWAP5 SWAP4 POP POP POP POP JUMP JUMPDEST PUSH1 0x0 PUSH1 0x20 DUP3 ADD SWAP1 POP PUSH3 0xE27 PUSH1 0x0 DUP4 ADD DUP5 PUSH3 0xDC2 JUMP JUMPDEST SWAP3 SWAP2 POP POP JUMP JUMPDEST PUSH1 0x80 MLOAD PUSH2 0x22BF PUSH3 0xE57 PUSH1 0x0 CODECOPY PUSH1 0x0 DUP2 DUP2 PUSH2 0x93C ADD MSTORE DUP2 DUP2 PUSH2 0xA68 ADD MSTORE PUSH2 0xFB2 ADD MSTORE PUSH2 0x22BF PUSH1 0x0 RETURN INVALID PUSH1 0x80 PUSH1 0x40 MSTORE CALLVALUE DUP1 ISZERO PUSH2 0x10 JUMPI PUSH1 0x0 DUP1 REVERT JUMPDEST POP PUSH1 0x4 CALLDATASIZE LT PUSH2 0x116 JUMPI PUSH1 0x0 CALLDATALOAD PUSH1 0xE0 SHR DUP1 PUSH4 0x797FD8F0 GT PUSH2 0xA2 JUMPI DUP1 PUSH4 0xA9059CBB GT PUSH2 0x71 JUMPI DUP1 PUSH4 0xA9059CBB EQ PUSH2 0x2C3 JUMPI DUP1 PUSH4 0xC9567BF9 EQ PUSH2 0x2F3 JUMPI DUP1 PUSH4 0xDD62ED3E EQ PUSH2 0x2FD JUMPI DUP1 PUSH4 0xF2FDE38B EQ PUSH2 0x32D JUMPI DUP1 PUSH4 0xFDF7DDD6 EQ PUSH2 0x349 JUMPI PUSH2 0x116 JUMP JUMPDEST DUP1 PUSH4 0x797FD8F0 EQ PUSH2 0x24B JUMPI DUP1 PUSH4 0x7DAA930A EQ PUSH2 0x269 JUMPI DUP1 PUSH4 0x8DA5CB5B EQ PUSH2 0x287 JUMPI DUP1 PUSH4 0x95D89B41 EQ PUSH2 0x2A5 JUMPI PUSH2 0x116 JUMP JUMPDEST DUP1 PUSH4 0x313CE567 GT PUSH2 0xE9 JUMPI DUP1 PUSH4 0x313CE567 EQ PUSH2 0x1B7 JUMPI DUP1 PUSH4 0x61D027B3 EQ PUSH2 0x1D5 JUMPI DUP1 PUSH4 0x70A08231 EQ PUSH2 0x1F3 JUMPI DUP1 PUSH4 0x715018A6 EQ PUSH2 0x223 JUMPI DUP1 PUSH4 0x72614E99 EQ PUSH2 0x22D JUMPI PUSH2 0x116 JUMP JUMPDEST DUP1 PUSH4 0x6FDDE03 EQ PUSH2 0x11B JUMPI DUP1 PUSH4 0x95EA7B3 EQ PUSH2 0x139 JUMPI DUP1 PUSH4 0x18160DDD EQ PUSH2 0x169 JUMPI DUP1 PUSH4 0x23B872DD EQ PUSH2 0x187 JUMPI JUMPDEST PUSH1 0x0 DUP1 REVERT JUMPDEST PUSH2 0x123 PUSH2 0x367 JUMP JUMPDEST PUSH1 0x40 MLOAD PUSH2 0x130 SWAP2 SWAP1 PUSH2 0x1BD3 JUMP JUMPDEST PUSH1 0x40 MLOAD DUP1 SWAP2 SUB SWAP1 RETURN JUMPDEST PUSH2 0x153 PUSH1 0x4 DUP1 CALLDATASIZE SUB DUP2 ADD SWAP1 PUSH2 0x14E SWAP2 SWAP1 PUSH2 0x1C8E JUMP JUMPDEST PUSH2 0x3F9 JUMP JUMPDEST PUSH1 0x40 MLOAD PUSH2 0x160 SWAP2 SWAP1 PUSH2 0x1CE9 JUMP JUMPDEST PUSH1 0x40 MLOAD DUP1 SWAP2 SUB SWAP1 RETURN JUMPDEST PUSH2 0x171 PUSH2 0x41C JUMP JUMPDEST PUSH1 0x40 MLOAD PUSH2 0x17E SWAP2 SWAP1 PUSH2 0x1D13 JUMP JUMPDEST PUSH1 0x40 MLOAD DUP1 SWAP2 SUB SWAP1 RETURN JUMPDEST PUSH2 0x1A1 PUSH1 0x4 DUP1 CALLDATASIZE SUB DUP2 ADD SWAP1 PUSH2 0x19C SWAP2 SWAP1 PUSH2 0x1D2E JUMP JUMPDEST PUSH2 0x426 JUMP JUMPDEST PUSH1 0x40 MLOAD PUSH2 0x1AE SWAP2 SWAP1 PUSH2 0x1CE9 JUMP JUMPDEST PUSH1 0x40 MLOAD DUP1 SWAP2 SUB SWAP1 RETURN JUMPDEST PUSH2 0x1BF PUSH2 0xA5D JUMP JUMPDEST PUSH1 0x40 MLOAD PUSH2 0x1CC SWAP2 SWAP1 PUSH2 0x1D9D JUMP JUMPDEST PUSH1 0x40 MLOAD DUP1 SWAP2 SUB SWAP1 RETURN JUMPDEST PUSH2 0x1DD PUSH2 0xA66 JUMP JUMPDEST PUSH1 0x40 MLOAD PUSH2 0x1EA SWAP2 SWAP1 PUSH2 0x1DC7 JUMP JUMPDEST PUSH1 0x40 MLOAD DUP1 SWAP2 SUB SWAP1 RETURN JUMPDEST PUSH2 0x20D PUSH1 0x4 DUP1 CALLDATASIZE SUB DUP2 ADD SWAP1 PUSH2 0x208 SWAP2 SWAP1 PUSH2 0x1DE2 JUMP JUMPDEST PUSH2 0xA8A JUMP JUMPDEST PUSH1 0x40 MLOAD PUSH2 0x21A SWAP2 SWAP1 PUSH2 0x1D13 JUMP JUMPDEST PUSH1 0x40 MLOAD DUP1 SWAP2 SUB SWAP1 RETURN JUMPDEST PUSH2 0x22B PUSH2 0xAD2 JUMP JUMPDEST STOP JUMPDEST PUSH2 0x235 PUSH2 0xAE6 JUMP JUMPDEST PUSH1 0x40 MLOAD PUSH2 0x242 SWAP2 SWAP1 PUSH2 0x1D13 JUMP JUMPDEST PUSH1 0x40 MLOAD DUP1 SWAP2 SUB SWAP1 RETURN JUMPDEST PUSH2 0x253 PUSH2 0xAEB JUMP JUMPDEST PUSH1 0x40 MLOAD PUSH2 0x260 SWAP2 SWAP1 PUSH2 0x1D13 JUMP JUMPDEST PUSH1 0x40 MLOAD DUP1 SWAP2 SUB SWAP1 RETURN JUMPDEST PUSH2 0x271 PUSH2 0xAF0 JUMP JUMPDEST PUSH1 0x40 MLOAD PUSH2 0x27E SWAP2 SWAP1 PUSH2 0x1CE9 JUMP JUMPDEST PUSH1 0x40 MLOAD DUP1 SWAP2 SUB SWAP1 RETURN JUMPDEST PUSH2 0x28F PUSH2 0xB03 JUMP JUMPDEST PUSH1 0x40 MLOAD PUSH2 0x29C SWAP2 SWAP1 PUSH2 0x1DC7 JUMP JUMPDEST PUSH1 0x40 MLOAD DUP1 SWAP2 SUB SWAP1 RETURN JUMPDEST PUSH2 0x2AD PUSH2 0xB2D JUMP JUMPDEST PUSH1 0x40 MLOAD PUSH2 0x2BA SWAP2 SWAP1 PUSH2 0x1BD3 JUMP JUMPDEST PUSH1 0x40 MLOAD DUP1 SWAP2 SUB SWAP1 RETURN JUMPDEST PUSH2 0x2DD PUSH1 0x4 DUP1 CALLDATASIZE SUB DUP2 ADD SWAP1 PUSH2 0x2D8 SWAP2 SWAP1 PUSH2 0x1C8E JUMP JUMPDEST PUSH2 0xBBF JUMP JUMPDEST PUSH1 0x40 MLOAD PUSH2 0x2EA SWAP2 SWAP1 PUSH2 0x1CE9 JUMP JUMPDEST PUSH1 0x40 MLOAD DUP1 SWAP2 SUB SWAP1 RETURN JUMPDEST PUSH2 0x2FB PUSH2 0x10DF JUMP JUMPDEST STOP JUMPDEST PUSH2 0x317 PUSH1 0x4 DUP1 CALLDATASIZE SUB DUP2 ADD SWAP1 PUSH2 0x312 SWAP2 SWAP1 PUSH2 0x1E0F JUMP JUMPDEST PUSH2 0x120F JUMP JUMPDEST PUSH1 0x40 MLOAD PUSH2 0x324 SWAP2 SWAP1 PUSH2 0x1D13 JUMP JUMPDEST PUSH1 0x40 MLOAD DUP1 SWAP2 SUB SWAP1 RETURN JUMPDEST PUSH2 0x347 PUSH1 0x4 DUP1 CALLDATASIZE SUB DUP2 ADD SWAP1 PUSH2 0x342 SWAP2 SWAP1 PUSH2 0x1DE2 JUMP JUMPDEST PUSH2 0x1296 JUMP JUMPDEST STOP JUMPDEST PUSH2 0x351 PUSH2 0x131C JUMP JUMPDEST PUSH1 0x40 MLOAD PUSH2 0x35E SWAP2 SWAP1 PUSH2 0x1D13 JUMP JUMPDEST PUSH1 0x40 MLOAD DUP1 SWAP2 SUB SWAP1 RETURN JUMPDEST PUSH1 0x60 PUSH1 0x3 DUP1 SLOAD PUSH2 0x376 SWAP1 PUSH2 0x1E7E JUMP JUMPDEST DUP1 PUSH1 0x1F ADD PUSH1 0x20 DUP1 SWAP2 DIV MUL PUSH1 0x20 ADD PUSH1 0x40 MLOAD SWAP1 DUP2 ADD PUSH1 0x40 MSTORE DUP1 SWAP3 SWAP2 SWAP1 DUP2 DUP2 MSTORE PUSH1 0x20 ADD DUP3 DUP1 SLOAD PUSH2 0x3A2 SWAP1 PUSH2 0x1E7E JUMP JUMPDEST DUP1 ISZERO PUSH2 0x3EF JUMPI DUP1 PUSH1 0x1F LT PUSH2 0x3C4 JUMPI PUSH2 0x100 DUP1 DUP4 SLOAD DIV MUL DUP4 MSTORE SWAP2 PUSH1 0x20 ADD SWAP2 PUSH2 0x3EF JUMP JUMPDEST DUP3 ADD SWAP2 SWAP1 PUSH1 0x0 MSTORE PUSH1 0x20 PUSH1 0x0 KECCAK256 SWAP1 JUMPDEST DUP2 SLOAD DUP2 MSTORE SWAP1 PUSH1 0x1 ADD SWAP1 PUSH1 0x20 ADD DUP1 DUP4 GT PUSH2 0x3D2 JUMPI DUP3 SWAP1 SUB PUSH1 0x1F AND DUP3 ADD SWAP2 JUMPDEST POP POP POP POP POP SWAP1 POP SWAP1 JUMP JUMPDEST PUSH1 0x0 DUP1 PUSH2 0x404 PUSH2 0x1322 JUMP JUMPDEST SWAP1 POP PUSH2 0x411 DUP2 DUP6 DUP6 PUSH2 0x132A JUMP JUMPDEST PUSH1 0x1 SWAP2 POP POP SWAP3 SWAP2 POP POP JUMP JUMPDEST PUSH1 0x0 PUSH1 0x2 SLOAD SWAP1 POP SWAP1 JUMP JUMPDEST PUSH1 0x0 PUSH2 0x43C PUSH8 0xE2DBE393C885491F PUSH1 0xC0 SHL PUSH2 0x133C JUMP JUMPDEST PUSH2 0x450 PUSH8 0xB989101AE4B66A26 PUSH1 0xC0 SHL PUSH2 0x133C JUMP JUMPDEST PUSH2 0x464 PUSH8 0x46CB3A60A42F2426 PUSH1 0xC0 SHL PUSH2 0x133C JUMP JUMPDEST PUSH2 0x478 PUSH8 0x8CDBDD9740FF4D20 PUSH1 0xC0 SHL PUSH2 0x133C JUMP JUMPDEST PUSH2 0x48C PUSH8 0xA1104F6A592E1750 PUSH1 0xC0 SHL PUSH2 0x133C JUMP JUMPDEST PUSH1 0x7 PUSH1 0x0 SWAP1 SLOAD SWAP1 PUSH2 0x100 EXP SWAP1 DIV PUSH1 0xFF AND PUSH2 0x4DB JUMPI PUSH1 0x40 MLOAD PUSH32 0x8C379A000000000000000000000000000000000000000000000000000000000 DUP2 MSTORE PUSH1 0x4 ADD PUSH2 0x4D2 SWAP1 PUSH2 0x1EFB JUMP JUMPDEST PUSH1 0x40 MLOAD DUP1 SWAP2 SUB SWAP1 REVERT JUMPDEST PUSH2 0x4EF PUSH8 0xDF39A72F470E2CAC PUSH1 0xC0 SHL PUSH2 0x133C JUMP JUMPDEST PUSH2 0x503 PUSH8 0x2972B4BB9016920C PUSH1 0xC0 SHL PUSH2 0x133C JUMP JUMPDEST PUSH2 0x517 PUSH8 0x2E81075266267456 PUSH1 0xC0 SHL PUSH2 0x133C JUMP JUMPDEST PUSH2 0x52B PUSH8 0x4A68C3178ED4E458 PUSH1 0xC0 SHL PUSH2 0x133C JUMP JUMPDEST PUSH2 0x53F PUSH8 0x5C06245B2584DC86 PUSH1 0xC0 SHL PUSH2 0x133C JUMP JUMPDEST PUSH2 0x553 PUSH8 0xB0E79007895CD238 PUSH1 0xC0 SHL PUSH2 0x133C JUMP JUMPDEST PUSH1 0x0 PUSH2 0x566 DUP6 PUSH2 0x561 PUSH2 0x1322 JUMP JUMPDEST PUSH2 0x120F JUMP JUMPDEST SWAP1 POP PUSH2 0x57C PUSH8 0xCA9A73B82A8F14AC PUSH1 0xC0 SHL PUSH2 0x133C JUMP JUMPDEST PUSH2 0x590 PUSH8 0xAC3C79781B2A6AD7 PUSH1 0xC0 SHL PUSH2 0x133C JUMP JUMPDEST DUP3 DUP2 LT ISZERO PUSH2 0x60A JUMPI PUSH2 0x5AC PUSH8 0x3CD4E2061335FFD7 PUSH1 0xC0 SHL PUSH2 0x133C JUMP JUMPDEST PUSH2 0x5C0 PUSH8 0x8BC3561A928EEE6D PUSH1 0xC0 SHL PUSH2 0x133C JUMP JUMPDEST DUP5 PUSH2 0x5C9 PUSH2 0x1322 JUMP JUMPDEST DUP5 DUP4 PUSH1 0x40 MLOAD PUSH32 0x2817560A00000000000000000000000000000000000000000000000000000000 DUP2 MSTORE PUSH1 0x4 ADD PUSH2 0x601 SWAP5 SWAP4 SWAP3 SWAP2 SWAP1 PUSH2 0x1F1B JUMP JUMPDEST PUSH1 0x40 MLOAD DUP1 SWAP2 SUB SWAP1 REVERT JUMPDEST PUSH2 0x61E PUSH8 0x6A4A7E4EF1F21907 PUSH1 0xC0 SHL PUSH2 0x133C JUMP JUMPDEST PUSH2 0x632 PUSH8 0xEF30C4EF5D4C79AD PUSH1 0xC0 SHL PUSH2 0x133C JUMP JUMPDEST PUSH2 0x646 PUSH8 0x14A6CDE324A4D104 PUSH1 0xC0 SHL PUSH2 0x133C JUMP JUMPDEST PUSH2 0x663 DUP6 PUSH2 0x652 PUSH2 0x1322 JUMP JUMPDEST DUP6 DUP5 PUSH2 0x65E SWAP2 SWAP1 PUSH2 0x1F8F JUMP JUMPDEST PUSH2 0x132A JUMP JUMPDEST PUSH2 0x677 PUSH8 0xAAA88EC6AD9F982D PUSH1 0xC0 SHL PUSH2 0x133C JUMP JUMPDEST PUSH2 0x68B PUSH8 0xD9901DB29430B10A PUSH1 0xC0 SHL PUSH2 0x133C JUMP JUMPDEST PUSH2 0x69F PUSH8 0x8B152461D93E9045 PUSH1 0xC0 SHL PUSH2 0x133C JUMP JUMPDEST DUP3 PUSH2 0x6A9 DUP7 PUSH2 0xA8A JUMP JUMPDEST LT ISZERO PUSH2 0x6EA JUMPI PUSH1 0x40 MLOAD PUSH32 0x8C379A000000000000000000000000000000000000000000000000000000000 DUP2 MSTORE PUSH1 0x4 ADD PUSH2 0x6E1 SWAP1 PUSH2 0x2035 JUMP JUMPDEST PUSH1 0x40 MLOAD DUP1 SWAP2 SUB SWAP1 REVERT JUMPDEST PUSH2 0x6FE PUSH8 0xCB1FA692B3E34197 PUSH1 0xC0 SHL PUSH2 0x133C JUMP JUMPDEST PUSH2 0x712 PUSH8 0x14E9476DF36FCCBD PUSH1 0xC0 SHL PUSH2 0x133C JUMP JUMPDEST PUSH2 0x726 PUSH8 0x90F106E8FE4492EB PUSH1 0xC0 SHL PUSH2 0x133C JUMP JUMPDEST PUSH2 0x73A PUSH8 0xDC88B3F917B66B28 PUSH1 0xC0 SHL PUSH2 0x133C JUMP JUMPDEST PUSH1 0x0 PUSH20 0xFFFFFFFFFFFFFFFFFFFFFFFFFFFFFFFFFFFFFFFF AND DUP5 PUSH20 0xFFFFFFFFFFFFFFFFFFFFFFFFFFFFFFFFFFFFFFFF AND SUB PUSH2 0x7A9 JUMPI PUSH1 0x40 MLOAD PUSH32 0x8C379A000000000000000000000000000000000000000000000000000000000 DUP2 MSTORE PUSH1 0x4 ADD PUSH2 0x7A0 SWAP1 PUSH2 0x20C7 JUMP JUMPDEST PUSH1 0x40 MLOAD DUP1 SWAP2 SUB SWAP1 REVERT JUMPDEST PUSH2 0x7BD PUSH8 0x9FE44C461E0D32FC PUSH1 0xC0 SHL PUSH2 0x133C JUMP JUMPDEST PUSH2 0x7D1 PUSH8 0xE3D77769863DAF9B PUSH1 0xC0 SHL PUSH2 0x133C JUMP JUMPDEST PUSH2 0x7E5 PUSH8 0xE520A4C4616E5F6F PUSH1 0xC0 SHL PUSH2 0x133C JUMP JUMPDEST PUSH1 0x0 DUP1 PUSH2 0x7F1 DUP6 PUSH2 0x133F JUMP JUMPDEST SWAP2 POP SWAP2 POP PUSH2 0x809 PUSH8 0x8C9AE7528548B5E6 PUSH1 0xC0 SHL PUSH2 0x133C JUMP JUMPDEST PUSH2 0x81D PUSH8 0x87B1B6C1081D080F PUSH1 0xC0 SHL PUSH2 0x133C JUMP JUMPDEST PUSH1 0x0 DUP2 DUP4 DUP8 PUSH2 0x82C SWAP2 SWAP1 PUSH2 0x1F8F JUMP JUMPDEST PUSH2 0x836 SWAP2 SWAP1 PUSH2 0x1F8F JUMP JUMPDEST SWAP1 POP PUSH2 0x84C PUSH8 0x4C635D232E277275 PUSH1 0xC0 SHL PUSH2 0x133C JUMP JUMPDEST PUSH2 0x860 PUSH8 0xF2F18B2E0CBACE72 PUSH1 0xC0 SHL PUSH2 0x133C JUMP JUMPDEST PUSH1 0x0 DUP4 GT ISZERO PUSH2 0x8B4 JUMPI PUSH2 0x87D PUSH8 0x269F403A28B1B729 PUSH1 0xC0 SHL PUSH2 0x133C JUMP JUMPDEST PUSH2 0x891 PUSH8 0x3E89288D567815BC PUSH1 0xC0 SHL PUSH2 0x133C JUMP JUMPDEST PUSH2 0x8A5 PUSH8 0xA6DAF36E3F63CB51 PUSH1 0xC0 SHL PUSH2 0x133C JUMP JUMPDEST PUSH2 0x8AF DUP9 DUP5 PUSH2 0x1484 JUMP JUMPDEST PUSH2 0x8C9 JUMP JUMPDEST PUSH2 0x8C8 PUSH8 0x3D8C05E88FBB484F PUSH1 0xC0 SHL PUSH2 0x133C JUMP JUMPDEST JUMPDEST PUSH2 0x8DD PUSH8 0x4105C48888570D21 PUSH1 0xC0 SHL PUSH2 0x133C JUMP JUMPDEST PUSH2 0x8F1 PUSH8 0xC0FB0A56D0C3DB77 PUSH1 0xC0 SHL PUSH2 0x133C JUMP JUMPDEST PUSH1 0x0 DUP3 GT ISZERO PUSH2 0x966 JUMPI PUSH2 0x90E PUSH8 0xA9531AECE1E111A1 PUSH1 0xC0 SHL PUSH2 0x133C JUMP JUMPDEST PUSH2 0x922 PUSH8 0x17D49DB92D6645A PUSH1 0xC0 SHL PUSH2 0x133C JUMP JUMPDEST PUSH2 0x936 PUSH8 0x889EB00791739549 PUSH1 0xC0 SHL PUSH2 0x133C JUMP JUMPDEST PUSH2 0x961 DUP9 PUSH32 0x0 DUP5 PUSH2 0x1506 JUMP JUMPDEST PUSH2 0x97B JUMP JUMPDEST PUSH2 0x97A PUSH8 0x83088914D3979450 PUSH1 0xC0 SHL PUSH2 0x133C JUMP JUMPDEST JUMPDEST PUSH2 0x98F PUSH8 0x67850A9446DDF2A5 PUSH1 0xC0 SHL PUSH2 0x133C JUMP JUMPDEST PUSH2 0x9A3 PUSH8 0xAB68A0CDD57AA496 PUSH1 0xC0 SHL PUSH2 0x133C JUMP JUMPDEST PUSH2 0x9AE DUP9 DUP9 DUP4 PUSH2 0x1506 JUMP JUMPDEST PUSH2 0x9C2 PUSH8 0x9F5198E2D931FA21 PUSH1 0xC0 SHL PUSH2 0x133C JUMP JUMPDEST PUSH2 0x9D6 PUSH8 0xDA14C75B78B6B415 PUSH1 0xC0 SHL PUSH2 0x133C JUMP JUMPDEST DUP8 PUSH20 0xFFFFFFFFFFFFFFFFFFFFFFFFFFFFFFFFFFFFFFFF AND PUSH32 0xA6B7D7885E75FAFB205114D74135904F557437647EBCBB720FAD77C6869C1835 DUP5 DUP5 PUSH1 0x40 MLOAD PUSH2 0xA1E SWAP3 SWAP2 SWAP1 PUSH2 0x20E7 JUMP JUMPDEST PUSH1 0x40 MLOAD DUP1 SWAP2 SUB SWAP1 LOG2 PUSH2 0xA3A PUSH8 0xACD9F419E5D610F2 PUSH1 0xC0 SHL PUSH2 0x133C JUMP JUMPDEST PUSH2 0xA4E PUSH8 0x34CA50C521E4DFAC PUSH1 0xC0 SHL PUSH2 0x133C JUMP JUMPDEST PUSH1 0x1 SWAP5 POP POP POP POP POP SWAP4 SWAP3 POP POP POP JUMP JUMPDEST PUSH1 0x0 PUSH1 0x12 SWAP1 POP SWAP1 JUMP JUMPDEST PUSH32 0x0 DUP2 JUMP JUMPDEST PUSH1 0x0 DUP1 PUSH1 0x0 DUP4 PUSH20 0xFFFFFFFFFFFFFFFFFFFFFFFFFFFFFFFFFFFFFFFF AND PUSH20 0xFFFFFFFFFFFFFFFFFFFFFFFFFFFFFFFFFFFFFFFF AND DUP2 MSTORE PUSH1 0x20 ADD SWAP1 DUP2 MSTORE PUSH1 0x20 ADD PUSH1 0x0 KECCAK256 SLOAD SWAP1 POP SWAP2 SWAP1 POP JUMP JUMPDEST PUSH2 0xADA PUSH2 0x15FA JUMP JUMPDEST PUSH2 0xAE4 PUSH1 0x0 PUSH2 0x1681 JUMP JUMPDEST JUMP JUMPDEST PUSH1 0xA DUP2 JUMP JUMPDEST PUSH1 0x63 DUP2 JUMP JUMPDEST PUSH1 0x7 PUSH1 0x0 SWAP1 SLOAD SWAP1 PUSH2 0x100 EXP SWAP1 DIV PUSH1 0xFF AND DUP2 JUMP JUMPDEST PUSH1 0x0 PUSH1 0x5 PUSH1 0x0 SWAP1 SLOAD SWAP1 PUSH2 0x100 EXP SWAP1 DIV PUSH20 0xFFFFFFFFFFFFFFFFFFFFFFFFFFFFFFFFFFFFFFFF AND SWAP1 POP SWAP1 JUMP JUMPDEST PUSH1 0x60 PUSH1 0x4 DUP1 SLOAD PUSH2 0xB3C SWAP1 PUSH2 0x1E7E JUMP JUMPDEST DUP1 PUSH1 0x1F ADD PUSH1 0x20 DUP1 SWAP2 DIV MUL PUSH1 0x20 ADD PUSH1 0x40 MLOAD SWAP1 DUP2 ADD PUSH1 0x40 MSTORE DUP1 SWAP3 SWAP2 SWAP1 DUP2 DUP2 MSTORE PUSH1 0x20 ADD DUP3 DUP1 SLOAD PUSH2 0xB68 SWAP1 PUSH2 0x1E7E JUMP JUMPDEST DUP1 ISZERO PUSH2 0xBB5 JUMPI DUP1 PUSH1 0x1F LT PUSH2 0xB8A JUMPI PUSH2 0x100 DUP1 DUP4 SLOAD DIV MUL DUP4 MSTORE SWAP2 PUSH1 0x20 ADD SWAP2 PUSH2 0xBB5 JUMP JUMPDEST DUP3 ADD SWAP2 SWAP1 PUSH1 0x0 MSTORE PUSH1 0x20 PUSH1 0x0 KECCAK256 SWAP1 JUMPDEST DUP2 SLOAD DUP2 MSTORE SWAP1 PUSH1 0x1 ADD SWAP1 PUSH1 0x20 ADD DUP1 DUP4 GT PUSH2 0xB98 JUMPI DUP3 SWAP1 SUB PUSH1 0x1F AND DUP3 ADD SWAP2 JUMPDEST POP POP POP POP POP SWAP1 POP SWAP1 JUMP JUMPDEST PUSH1 0x0 PUSH2 0xBD5 PUSH8 0x9A59AF57EBFD12C0 PUSH1 0xC0 SHL PUSH2 0x133C JUMP JUMPDEST PUSH2 0xBE9 PUSH8 0xB989101AE4B66A26 PUSH1 0xC0 SHL PUSH2 0x133C JUMP JUMPDEST PUSH2 0xBFD PUSH8 0x46CB3A60A42F2426 PUSH1 0xC0 SHL PUSH2 0x133C JUMP JUMPDEST PUSH2 0xC11 PUSH8 0x8CDBDD9740FF4D20 PUSH1 0xC0 SHL PUSH2 0x133C JUMP JUMPDEST PUSH2 0xC25 PUSH8 0xA1104F6A592E1750 PUSH1 0xC0 SHL PUSH2 0x133C JUMP JUMPDEST PUSH1 0x7 PUSH1 0x0 SWAP1 SLOAD SWAP1 PUSH2 0x100 EXP SWAP1 DIV PUSH1 0xFF AND PUSH2 0xC74 JUMPI PUSH1 0x40 MLOAD PUSH32 0x8C379A000000000000000000000000000000000000000000000000000000000 DUP2 MSTORE PUSH1 0x4 ADD PUSH2 0xC6B SWAP1 PUSH2 0x1EFB JUMP JUMPDEST PUSH1 0x40 MLOAD DUP1 SWAP2 SUB SWAP1 REVERT JUMPDEST PUSH2 0xC88 PUSH8 0xDF39A72F470E2CAC PUSH1 0xC0 SHL PUSH2 0x133C JUMP JUMPDEST PUSH2 0xC9C PUSH8 0x2972B4BB9016920C PUSH1 0xC0 SHL PUSH2 0x133C JUMP JUMPDEST PUSH2 0xCB0 PUSH8 0x39ABDD429D6BE58F PUSH1 0xC0 SHL PUSH2 0x133C JUMP JUMPDEST PUSH2 0xCC4 PUSH8 0xBBF2FC6FB9C4A273 PUSH1 0xC0 SHL PUSH2 0x133C JUMP JUMPDEST PUSH2 0xCD8 PUSH8 0x822E02DA47FEE122 PUSH1 0xC0 SHL PUSH2 0x133C JUMP JUMPDEST PUSH2 0xCEC PUSH8 0xCC2976CF3820E787 PUSH1 0xC0 SHL PUSH2 0x133C JUMP JUMPDEST PUSH2 0xD00 PUSH8 0x4BA8625C4626FC12 PUSH1 0xC0 SHL PUSH2 0x133C JUMP JUMPDEST DUP2 PUSH2 0xD11 PUSH2 0xD0C PUSH2 0x1322 JUMP JUMPDEST PUSH2 0xA8A JUMP JUMPDEST LT ISZERO PUSH2 0xD52 JUMPI PUSH1 0x40 MLOAD PUSH32 0x8C379A000000000000000000000000000000000000000000000000000000000 DUP2 MSTORE PUSH1 0x4 ADD PUSH2 0xD49 SWAP1 PUSH2 0x2035 JUMP JUMPDEST PUSH1 0x40 MLOAD DUP1 SWAP2 SUB SWAP1 REVERT JUMPDEST PUSH2 0xD66 PUSH8 0x2A88D8BF8C594C84 PUSH1 0xC0 SHL PUSH2 0x133C JUMP JUMPDEST PUSH2 0xD7A PUSH8 0x2FB8ED6209555164 PUSH1 0xC0 SHL PUSH2 0x133C JUMP JUMPDEST PUSH2 0xD8E PUSH8 0x6CA7BE3EEB9C2ECD PUSH1 0xC0 SHL PUSH2 0x133C JUMP JUMPDEST PUSH2 0xDA2 PUSH8 0x3CF35122CDFB178A PUSH1 0xC0 SHL PUSH2 0x133C JUMP JUMPDEST PUSH1 0x0 PUSH20 0xFFFFFFFFFFFFFFFFFFFFFFFFFFFFFFFFFFFFFFFF AND DUP4 PUSH20 0xFFFFFFFFFFFFFFFFFFFFFFFFFFFFFFFFFFFFFFFF AND SUB PUSH2 0xE11 JUMPI PUSH1 0x40 MLOAD PUSH32 0x8C379A000000000000000000000000000000000000000000000000000000000 DUP2 MSTORE PUSH1 0x4 ADD PUSH2 0xE08 SWAP1 PUSH2 0x20C7 JUMP JUMPDEST PUSH1 0x40 MLOAD DUP1 SWAP2 SUB SWAP1 REVERT JUMPDEST PUSH2 0xE25 PUSH8 0x2449ACDAF4E024EE PUSH1 0xC0 SHL PUSH2 0x133C JUMP JUMPDEST PUSH2 0xE39 PUSH8 0xEB275690D8D1C8E3 PUSH1 0xC0 SHL PUSH2 0x133C JUMP JUMPDEST PUSH2 0xE4D PUSH8 0x8D41AC62ACF171D6 PUSH1 0xC0 SHL PUSH2 0x133C JUMP JUMPDEST PUSH1 0x0 DUP1 PUSH2 0xE59 DUP5 PUSH2 0x133F JUMP JUMPDEST SWAP2 POP SWAP2 POP PUSH2 0xE71 PUSH8 0x4C9A26ACA0684E7D PUSH1 0xC0 SHL PUSH2 0x133C JUMP JUMPDEST PUSH2 0xE85 PUSH8 0x4BE85B7922229E9F PUSH1 0xC0 SHL PUSH2 0x133C JUMP JUMPDEST PUSH1 0x0 DUP2 DUP4 DUP7 PUSH2 0xE94 SWAP2 SWAP1 PUSH2 0x1F8F JUMP JUMPDEST PUSH2 0xE9E SWAP2 SWAP1 PUSH2 0x1F8F JUMP JUMPDEST SWAP1 POP PUSH2 0xEB4 PUSH8 0x8042F5290F13641A PUSH1 0xC0 SHL PUSH2 0x133C JUMP JUMPDEST PUSH2 0xEC8 PUSH8 0x2A39EEA4313B884A PUSH1 0xC0 SHL PUSH2 0x133C JUMP JUMPDEST PUSH1 0x0 DUP4 GT ISZERO PUSH2 0xF23 JUMPI PUSH2 0xEE5 PUSH8 0xD55B2E5C9D93F7C8 PUSH1 0xC0 SHL PUSH2 0x133C JUMP JUMPDEST PUSH2 0xEF9 PUSH8 0x2962E8D69AEE3D97 PUSH1 0xC0 SHL PUSH2 0x133C JUMP JUMPDEST PUSH2 0xF0D PUSH8 0xB9C318B74F65C2AF PUSH1 0xC0 SHL PUSH2 0x133C JUMP JUMPDEST PUSH2 0xF1E PUSH2 0xF18 PUSH2 0x1322 JUMP JUMPDEST DUP5 PUSH2 0x1484 JUMP JUMPDEST PUSH2 0xF38 JUMP JUMPDEST PUSH2 0xF37 PUSH8 0xE7281448A35A57FF PUSH1 0xC0 SHL PUSH2 0x133C JUMP JUMPDEST JUMPDEST PUSH2 0xF4C PUSH8 0x653126973F94B143 PUSH1 0xC0 SHL PUSH2 0x133C JUMP JUMPDEST PUSH2 0xF60 PUSH8 0xF3EB088A2D271C56 PUSH1 0xC0 SHL PUSH2 0x133C JUMP JUMPDEST PUSH1 0x0 DUP3 GT ISZERO PUSH2 0xFDC JUMPI PUSH2 0xF7D PUSH8 0x60F5D05F3A993829 PUSH1 0xC0 SHL PUSH2 0x133C JUMP JUMPDEST PUSH2 0xF91 PUSH8 0x6D5573376103819 PUSH1 0xC0 SHL PUSH2 0x133C JUMP JUMPDEST PUSH2 0xFA5 PUSH8 0x1E066A970E786066 PUSH1 0xC0 SHL PUSH2 0x133C JUMP JUMPDEST PUSH2 0xFD7 PUSH2 0xFB0 PUSH2 0x1322 JUMP JUMPDEST PUSH32 0x0 DUP5 PUSH2 0x1506 JUMP JUMPDEST PUSH2 0xFF1 JUMP JUMPDEST PUSH2 0xFF0 PUSH8 0xF642F9F56C27A421 PUSH1 0xC0 SHL PUSH2 0x133C JUMP JUMPDEST JUMPDEST PUSH2 0x1005 PUSH8 0x7EF6F52A45CF0E93 PUSH1 0xC0 SHL PUSH2 0x133C JUMP JUMPDEST PUSH2 0x1019 PUSH8 0xA938E9D382ED0099 PUSH1 0xC0 SHL PUSH2 0x133C JUMP JUMPDEST PUSH2 0x102B PUSH2 0x1024 PUSH2 0x1322 JUMP JUMPDEST DUP8 DUP4 PUSH2 0x1506 JUMP JUMPDEST PUSH2 0x103F PUSH8 0xFE764F8A70B02197 PUSH1 0xC0 SHL PUSH2 0x133C JUMP JUMPDEST PUSH2 0x1053 PUSH8 0xD6E0AB54AC43E75 PUSH1 0xC0 SHL PUSH2 0x133C JUMP JUMPDEST PUSH2 0x105B PUSH2 0x1322 JUMP JUMPDEST PUSH20 0xFFFFFFFFFFFFFFFFFFFFFFFFFFFFFFFFFFFFFFFF AND PUSH32 0xA6B7D7885E75FAFB205114D74135904F557437647EBCBB720FAD77C6869C1835 DUP5 DUP5 PUSH1 0x40 MLOAD PUSH2 0x10A2 SWAP3 SWAP2 SWAP1 PUSH2 0x20E7 JUMP JUMPDEST PUSH1 0x40 MLOAD DUP1 SWAP2 SUB SWAP1 LOG2 PUSH2 0x10BE PUSH8 0xC9C9FE7CA4E5BB27 PUSH1 0xC0 SHL PUSH2 0x133C JUMP JUMPDEST PUSH2 0x10D2 PUSH8 0x1E38CF56EA8ED886 PUSH1 0xC0 SHL PUSH2 0x133C JUMP JUMPDEST PUSH1 0x1 SWAP4 POP POP POP POP SWAP3 SWAP2 POP POP JUMP JUMPDEST PUSH2 0x10F3 PUSH8 0xA4AC02FAF69EB1DE PUSH1 0xC0 SHL PUSH2 0x133C JUMP JUMPDEST PUSH2 0x10FB PUSH2 0x15FA JUMP JUMPDEST PUSH2 0x110F PUSH8 0x4DA35AE0E401BFE4 PUSH1 0xC0 SHL PUSH2 0x133C JUMP JUMPDEST PUSH2 0x1123 PUSH8 0x4834F0393E64FFC6 PUSH1 0xC0 SHL PUSH2 0x133C JUMP JUMPDEST PUSH2 0x1137 PUSH8 0xB1B521D4B59786AA PUSH1 0xC0 SHL PUSH2 0x133C JUMP JUMPDEST PUSH2 0x114B PUSH8 0xE00EA5779300D201 PUSH1 0xC0 SHL PUSH2 0x133C JUMP JUMPDEST PUSH2 0x115F PUSH8 0xC46844DB06154EF0 PUSH1 0xC0 SHL PUSH2 0x133C JUMP JUMPDEST PUSH1 0x7 PUSH1 0x0 SWAP1 SLOAD SWAP1 PUSH2 0x100 EXP SWAP1 DIV PUSH1 0xFF AND ISZERO PUSH2 0x11AF JUMPI PUSH1 0x40 MLOAD PUSH32 0x8C379A000000000000000000000000000000000000000000000000000000000 DUP2 MSTORE PUSH1 0x4 ADD PUSH2 0x11A6 SWAP1 PUSH2 0x215C JUMP JUMPDEST PUSH1 0x40 MLOAD DUP1 SWAP2 SUB SWAP1 REVERT JUMPDEST PUSH2 0x11C3 PUSH8 0x34E0F6AFD57D9EC1 PUSH1 0xC0 SHL PUSH2 0x133C JUMP JUMPDEST PUSH2 0x11D7 PUSH8 0x7323A322775707C2 PUSH1 0xC0 SHL PUSH2 0x133C JUMP JUMPDEST PUSH1 0x1 PUSH1 0x7 PUSH1 0x0 PUSH2 0x100 EXP DUP2 SLOAD DUP2 PUSH1 0xFF MUL NOT AND SWAP1 DUP4 ISZERO ISZERO MUL OR SWAP1 SSTORE POP PUSH2 0x1206 PUSH8 0x47FCD726C6DACCF4 PUSH1 0xC0 SHL PUSH2 0x133C JUMP JUMPDEST NUMBER PUSH1 0x6 DUP2 SWAP1 SSTORE POP JUMP JUMPDEST PUSH1 0x0 PUSH1 0x1 PUSH1 0x0 DUP5 PUSH20 0xFFFFFFFFFFFFFFFFFFFFFFFFFFFFFFFFFFFFFFFF AND PUSH20 0xFFFFFFFFFFFFFFFFFFFFFFFFFFFFFFFFFFFFFFFF AND DUP2 MSTORE PUSH1 0x20 ADD SWAP1 DUP2 MSTORE PUSH1 0x20 ADD PUSH1 0x0 KECCAK256 PUSH1 0x0 DUP4 PUSH20 0xFFFFFFFFFFFFFFFFFFFFFFFFFFFFFFFFFFFFFFFF AND PUSH20 0xFFFFFFFFFFFFFFFFFFFFFFFFFFFFFFFFFFFFFFFF AND DUP2 MSTORE PUSH1 0x20 ADD SWAP1 DUP2 MSTORE PUSH1 0x20 ADD PUSH1 0x0 KECCAK256 SLOAD SWAP1 POP SWAP3 SWAP2 POP POP JUMP JUMPDEST PUSH2 0x129E PUSH2 0x15FA JUMP JUMPDEST PUSH1 0x0 PUSH20 0xFFFFFFFFFFFFFFFFFFFFFFFFFFFFFFFFFFFFFFFF AND DUP2 PUSH20 0xFFFFFFFFFFFFFFFFFFFFFFFFFFFFFFFFFFFFFFFF AND SUB PUSH2 0x1310 JUMPI PUSH1 0x0 PUSH1 0x40 MLOAD PUSH32 0x1E4FBDF700000000000000000000000000000000000000000000000000000000 DUP2 MSTORE PUSH1 0x4 ADD PUSH2 0x1307 SWAP2 SWAP1 PUSH2 0x1DC7 JUMP JUMPDEST PUSH1 0x40 MLOAD DUP1 SWAP2 SUB SWAP1 REVERT JUMPDEST PUSH2 0x1319 DUP2 PUSH2 0x1681 JUMP JUMPDEST POP JUMP JUMPDEST PUSH1 0x6 SLOAD DUP2 JUMP JUMPDEST PUSH1 0x0 CALLER SWAP1 POP SWAP1 JUMP JUMPDEST PUSH2 0x1337 DUP4 DUP4 DUP4 PUSH1 0x1 PUSH2 0x1747 JUMP JUMPDEST POP POP POP JUMP JUMPDEST POP JUMP JUMPDEST PUSH1 0x0 DUP1 PUSH2 0x1356 PUSH8 0xAFC46564E24C3DD4 PUSH1 0xC0 SHL PUSH2 0x133C JUMP JUMPDEST PUSH2 0x136A PUSH8 0xCBF07D95E39EA9B9 PUSH1 0xC0 SHL PUSH2 0x133C JUMP JUMPDEST PUSH2 0x137E PUSH8 0x4F38D8D6FD0043A7 PUSH1 0xC0 SHL PUSH2 0x133C JUMP JUMPDEST PUSH1 0x7 PUSH1 0x0 SWAP1 SLOAD SWAP1 PUSH2 0x100 EXP SWAP1 DIV PUSH1 0xFF AND DUP1 ISZERO PUSH2 0x13A7 JUMPI POP PUSH1 0xA PUSH1 0x6 SLOAD PUSH2 0x13A4 SWAP2 SWAP1 PUSH2 0x217C JUMP JUMPDEST NUMBER LT JUMPDEST ISZERO PUSH2 0x140C JUMPI PUSH2 0x13C0 PUSH8 0xD70E9B0C94DA9B07 PUSH1 0xC0 SHL PUSH2 0x133C JUMP JUMPDEST PUSH2 0x13D4 PUSH8 0xDDA5A8079A163FB8 PUSH1 0xC0 SHL PUSH2 0x133C JUMP JUMPDEST PUSH1 0x0 SWAP2 POP PUSH2 0x13EC PUSH8 0x4B1015ED7E60A228 PUSH1 0xC0 SHL PUSH2 0x133C JUMP JUMPDEST PUSH1 0x64 PUSH1 0x63 DUP5 PUSH2 0x13FB SWAP2 SWAP1 PUSH2 0x21B0 JUMP JUMPDEST PUSH2 0x1405 SWAP2 SWAP1 PUSH2 0x2221 JUMP JUMPDEST SWAP1 POP PUSH2 0x147F JUMP JUMPDEST PUSH2 0x1420 PUSH8 0xAF57042997BD5FF9 PUSH1 0xC0 SHL PUSH2 0x133C JUMP JUMPDEST PUSH2 0x1434 PUSH8 0x857D269B20F34654 PUSH1 0xC0 SHL PUSH2 0x133C JUMP JUMPDEST PUSH1 0x64 PUSH1 0x2 DUP5 PUSH2 0x1443 SWAP2 SWAP1 PUSH2 0x21B0 JUMP JUMPDEST PUSH2 0x144D SWAP2 SWAP1 PUSH2 0x2221 JUMP JUMPDEST SWAP2 POP PUSH2 0x1463 PUSH8 0x6ACB6211E0AF0815 PUSH1 0xC0 SHL PUSH2 0x133C JUMP JUMPDEST PUSH1 0x64 PUSH1 0x2 DUP5 PUSH2 0x1472 SWAP2 SWAP1 PUSH2 0x21B0 JUMP JUMPDEST PUSH2 0x147C SWAP2 SWAP1 PUSH2 0x2221 JUMP JUMPDEST SWAP1 POP JUMPDEST SWAP2 POP SWAP2 JUMP JUMPDEST PUSH1 0x0 PUSH20 0xFFFFFFFFFFFFFFFFFFFFFFFFFFFFFFFFFFFFFFFF AND DUP3 PUSH20 0xFFFFFFFFFFFFFFFFFFFFFFFFFFFFFFFFFFFFFFFF AND SUB PUSH2 0x14F6 JUMPI PUSH1 0x0 PUSH1 0x40 MLOAD PUSH32 0x96C6FD1E00000000000000000000000000000000000000000000000000000000 DUP2 MSTORE PUSH1 0x4 ADD PUSH2 0x14ED SWAP2 SWAP1 PUSH2 0x1DC7 JUMP JUMPDEST PUSH1 0x40 MLOAD DUP1 SWAP2 SUB SWAP1 REVERT JUMPDEST PUSH2 0x1502 DUP3 PUSH1 0x0 DUP4 PUSH2 0x191E JUMP JUMPDEST POP POP JUMP JUMPDEST PUSH1 0x0 PUSH20 0xFFFFFFFFFFFFFFFFFFFFFFFFFFFFFFFFFFFFFFFF AND DUP4 PUSH20 0xFFFFFFFFFFFFFFFFFFFFFFFFFFFFFFFFFFFFFFFF AND SUB PUSH2 0x1578 JUMPI PUSH1 0x0 PUSH1 0x40 MLOAD PUSH32 0x96C6FD1E00000000000000000000000000000000000000000000000000000000 DUP2 MSTORE PUSH1 0x4 ADD PUSH2 0x156F SWAP2 SWAP1 PUSH2 0x1DC7 JUMP JUMPDEST PUSH1 0x40 MLOAD DUP1 SWAP2 SUB SWAP1 REVERT JUMPDEST PUSH1 0x0 PUSH20 0xFFFFFFFFFFFFFFFFFFFFFFFFFFFFFFFFFFFFFFFF AND DUP3 PUSH20 0xFFFFFFFFFFFFFFFFFFFFFFFFFFFFFFFFFFFFFFFF AND SUB PUSH2 0x15EA JUMPI PUSH1 0x0 PUSH1 0x40 MLOAD PUSH32 0xEC442F0500000000000000000000000000000000000000000000000000000000 DUP2 MSTORE PUSH1 0x4 ADD PUSH2 0x15E1 SWAP2 SWAP1 PUSH2 0x1DC7 JUMP JUMPDEST PUSH1 0x40 MLOAD DUP1 SWAP2 SUB SWAP1 REVERT JUMPDEST PUSH2 0x15F5 DUP4 DUP4 DUP4 PUSH2 0x191E JUMP JUMPDEST POP POP POP JUMP JUMPDEST PUSH2 0x1602 PUSH2 0x1322 JUMP JUMPDEST PUSH20 0xFFFFFFFFFFFFFFFFFFFFFFFFFFFFFFFFFFFFFFFF AND PUSH2 0x1620 PUSH2 0xB03 JUMP JUMPDEST PUSH20 0xFFFFFFFFFFFFFFFFFFFFFFFFFFFFFFFFFFFFFFFF AND EQ PUSH2 0x167F JUMPI PUSH2 0x1643 PUSH2 0x1322 JUMP JUMPDEST PUSH1 0x40 MLOAD PUSH32 0x118CDAA700000000000000000000000000000000000000000000000000000000 DUP2 MSTORE PUSH1 0x4 ADD PUSH2 0x1676 SWAP2 SWAP1 PUSH2 0x1DC7 JUMP JUMPDEST PUSH1 0x40 MLOAD DUP1 SWAP2 SUB SWAP1 REVERT JUMPDEST JUMP JUMPDEST PUSH1 0x0 PUSH1 0x5 PUSH1 0x0 SWAP1 SLOAD SWAP1 PUSH2 0x100 EXP SWAP1 DIV PUSH20 0xFFFFFFFFFFFFFFFFFFFFFFFFFFFFFFFFFFFFFFFF AND SWAP1 POP DUP2 PUSH1 0x5 PUSH1 0x0 PUSH2 0x100 EXP DUP2 SLOAD DUP2 PUSH20 0xFFFFFFFFFFFFFFFFFFFFFFFFFFFFFFFFFFFFFFFF MUL NOT AND SWAP1 DUP4 PUSH20 0xFFFFFFFFFFFFFFFFFFFFFFFFFFFFFFFFFFFFFFFF AND MUL OR SWAP1 SSTORE POP DUP2 PUSH20 0xFFFFFFFFFFFFFFFFFFFFFFFFFFFFFFFFFFFFFFFF AND DUP2 PUSH20 0xFFFFFFFFFFFFFFFFFFFFFFFFFFFFFFFFFFFFFFFF AND PUSH32 0x8BE0079C531659141344CD1FD0A4F28419497F9722A3DAAFE3B4186F6B6457E0 PUSH1 0x40 MLOAD PUSH1 0x40 MLOAD DUP1 SWAP2 SUB SWAP1 LOG3 POP POP JUMP JUMPDEST PUSH1 0x0 PUSH20 0xFFFFFFFFFFFFFFFFFFFFFFFFFFFFFFFFFFFFFFFF AND DUP5 PUSH20 0xFFFFFFFFFFFFFFFFFFFFFFFFFFFFFFFFFFFFFFFF AND SUB PUSH2 0x17B9 JUMPI PUSH1 0x0 PUSH1 0x40 MLOAD PUSH32 0xE602DF0500000000000000000000000000000000000000000000000000000000 DUP2 MSTORE PUSH1 0x4 ADD PUSH2 0x17B0 SWAP2 SWAP1 PUSH2 0x1DC7 JUMP JUMPDEST PUSH1 0x40 MLOAD DUP1 SWAP2 SUB SWAP1 REVERT JUMPDEST PUSH1 0x0 PUSH20 0xFFFFFFFFFFFFFFFFFFFFFFFFFFFFFFFFFFFFFFFF AND DUP4 PUSH20 0xFFFFFFFFFFFFFFFFFFFFFFFFFFFFFFFFFFFFFFFF AND SUB PUSH2 0x182B JUMPI PUSH1 0x0 PUSH1 0x40 MLOAD PUSH32 0x94280D6200000000000000000000000000000000000000000000000000000000 DUP2 MSTORE PUSH1 0x4 ADD PUSH2 0x1822 SWAP2 SWAP1 PUSH2 0x1DC7 JUMP JUMPDEST PUSH1 0x40 MLOAD DUP1 SWAP2 SUB SWAP1 REVERT JUMPDEST DUP2 PUSH1 0x1 PUSH1 0x0 DUP7 PUSH20 0xFFFFFFFFFFFFFFFFFFFFFFFFFFFFFFFFFFFFFFFF AND PUSH20 0xFFFFFFFFFFFFFFFFFFFFFFFFFFFFFFFFFFFFFFFF AND DUP2 MSTORE PUSH1 0x20 ADD SWAP1 DUP2 MSTORE PUSH1 0x20 ADD PUSH1 0x0 KECCAK256 PUSH1 0x0 DUP6 PUSH20 0xFFFFFFFFFFFFFFFFFFFFFFFFFFFFFFFFFFFFFFFF AND PUSH20 0xFFFFFFFFFFFFFFFFFFFFFFFFFFFFFFFFFFFFFFFF AND DUP2 MSTORE PUSH1 0x20 ADD SWAP1 DUP2 MSTORE PUSH1 0x20 ADD PUSH1 0x0 KECCAK256 DUP2 SWAP1 SSTORE POP DUP1 ISZERO PUSH2 0x1918 JUMPI DUP3 PUSH20 0xFFFFFFFFFFFFFFFFFFFFFFFFFFFFFFFFFFFFFFFF AND DUP5 PUSH20 0xFFFFFFFFFFFFFFFFFFFFFFFFFFFFFFFFFFFFFFFF AND PUSH32 0x8C5BE1E5EBEC7D5BD14F71427D1E84F3DD0314C0F7B2291E5B200AC8C7C3B925 DUP5 PUSH1 0x40 MLOAD PUSH2 0x190F SWAP2 SWAP1 PUSH2 0x1D13 JUMP JUMPDEST PUSH1 0x40 MLOAD DUP1 SWAP2 SUB SWAP1 LOG3 JUMPDEST POP POP POP POP JUMP JUMPDEST PUSH1 0x0 PUSH20 0xFFFFFFFFFFFFFFFFFFFFFFFFFFFFFFFFFFFFFFFF AND DUP4 PUSH20 0xFFFFFFFFFFFFFFFFFFFFFFFFFFFFFFFFFFFFFFFF AND SUB PUSH2 0x1970 JUMPI DUP1 PUSH1 0x2 PUSH1 0x0 DUP3 DUP3 SLOAD PUSH2 0x1964 SWAP2 SWAP1 PUSH2 0x217C JUMP JUMPDEST SWAP3 POP POP DUP2 SWAP1 SSTORE POP PUSH2 0x1A43 JUMP JUMPDEST PUSH1 0x0 DUP1 PUSH1 0x0 DUP6 PUSH20 0xFFFFFFFFFFFFFFFFFFFFFFFFFFFFFFFFFFFFFFFF AND PUSH20 0xFFFFFFFFFFFFFFFFFFFFFFFFFFFFFFFFFFFFFFFF AND DUP2 MSTORE PUSH1 0x20 ADD SWAP1 DUP2 MSTORE PUSH1 0x20 ADD PUSH1 0x0 KECCAK256 SLOAD SWAP1 POP DUP2 DUP2 LT ISZERO PUSH2 0x19FC JUMPI DUP4 DUP2 DUP4 PUSH1 0x40 MLOAD PUSH32 0xE450D38C00000000000000000000000000000000000000000000000000000000 DUP2 MSTORE PUSH1 0x4 ADD PUSH2 0x19F3 SWAP4 SWAP3 SWAP2 SWAP1 PUSH2 0x2252 JUMP JUMPDEST PUSH1 0x40 MLOAD DUP1 SWAP2 SUB SWAP1 REVERT JUMPDEST DUP2 DUP2 SUB PUSH1 0x0 DUP1 DUP7 PUSH20 0xFFFFFFFFFFFFFFFFFFFFFFFFFFFFFFFFFFFFFFFF AND PUSH20 0xFFFFFFFFFFFFFFFFFFFFFFFFFFFFFFFFFFFFFFFF AND DUP2 MSTORE PUSH1 0x20 ADD SWAP1 DUP2 MSTORE PUSH1 0x20 ADD PUSH1 0x0 KECCAK256 DUP2 SWAP1 SSTORE POP POP JUMPDEST PUSH1 0x0 PUSH20 0xFFFFFFFFFFFFFFFFFFFFFFFFFFFFFFFFFFFFFFFF AND DUP3 PUSH20 0xFFFFFFFFFFFFFFFFFFFFFFFFFFFFFFFFFFFFFFFF AND SUB PUSH2 0x1A8C JUMPI DUP1 PUSH1 0x2 PUSH1 0x0 DUP3 DUP3 SLOAD SUB SWAP3 POP POP DUP2 SWAP1 SSTORE POP PUSH2 0x1AD9 JUMP JUMPDEST DUP1 PUSH1 0x0 DUP1 DUP5 PUSH20 0xFFFFFFFFFFFFFFFFFFFFFFFFFFFFFFFFFFFFFFFF AND PUSH20 0xFFFFFFFFFFFFFFFFFFFFFFFFFFFFFFFFFFFFFFFF AND DUP2 MSTORE PUSH1 0x20 ADD SWAP1 DUP2 MSTORE PUSH1 0x20 ADD PUSH1 0x0 KECCAK256 PUSH1 0x0 DUP3 DUP3 SLOAD ADD SWAP3 POP POP DUP2 SWAP1 SSTORE POP JUMPDEST DUP2 PUSH20 0xFFFFFFFFFFFFFFFFFFFFFFFFFFFFFFFFFFFFFFFF AND DUP4 PUSH20 0xFFFFFFFFFFFFFFFFFFFFFFFFFFFFFFFFFFFFFFFF AND PUSH32 0xDDF252AD1BE2C89B69C2B068FC378DAA952BA7F163C4A11628F55A4DF523B3EF DUP4 PUSH1 0x40 MLOAD PUSH2 0x1B36 SWAP2 SWAP1 PUSH2 0x1D13 JUMP JUMPDEST PUSH1 0x40 MLOAD DUP1 SWAP2 SUB SWAP1 LOG3 POP POP POP JUMP JUMPDEST PUSH1 0x0 DUP2 MLOAD SWAP1 POP SWAP2 SWAP1 POP JUMP JUMPDEST PUSH1 0x0 DUP3 DUP3 MSTORE PUSH1 0x20 DUP3 ADD SWAP1 POP SWAP3 SWAP2 POP POP JUMP JUMPDEST PUSH1 0x0 JUMPDEST DUP4 DUP2 LT ISZERO PUSH2 0x1B7D JUMPI DUP1 DUP3 ADD MLOAD DUP2 DUP5 ADD MSTORE PUSH1 0x20 DUP2 ADD SWAP1 POP PUSH2 0x1B62 JUMP JUMPDEST PUSH1 0x0 DUP5 DUP5 ADD MSTORE POP POP POP POP JUMP JUMPDEST PUSH1 0x0 PUSH1 0x1F NOT PUSH1 0x1F DUP4 ADD AND SWAP1 POP SWAP2 SWAP1 POP JUMP JUMPDEST PUSH1 0x0 PUSH2 0x1BA5 DUP3 PUSH2 0x1B43 JUMP JUMPDEST PUSH2 0x1BAF DUP2 DUP6 PUSH2 0x1B4E JUMP JUMPDEST SWAP4 POP PUSH2 0x1BBF DUP2 DUP6 PUSH1 0x20 DUP7 ADD PUSH2 0x1B5F JUMP JUMPDEST PUSH2 0x1BC8 DUP2 PUSH2 0x1B89 JUMP JUMPDEST DUP5 ADD SWAP2 POP POP SWAP3 SWAP2 POP POP JUMP JUMPDEST PUSH1 0x0 PUSH1 0x20 DUP3 ADD SWAP1 POP DUP2 DUP2 SUB PUSH1 0x0 DUP4 ADD MSTORE PUSH2 0x1BED DUP2 DUP5 PUSH2 0x1B9A JUMP JUMPDEST SWAP1 POP SWAP3 SWAP2 POP POP JUMP JUMPDEST PUSH1 0x0 DUP1 REVERT JUMPDEST PUSH1 0x0 PUSH20 0xFFFFFFFFFFFFFFFFFFFFFFFFFFFFFFFFFFFFFFFF DUP3 AND SWAP1 POP SWAP2 SWAP1 POP JUMP JUMPDEST PUSH1 0x0 PUSH2 0x1C25 DUP3 PUSH2 0x1BFA JUMP JUMPDEST SWAP1 POP SWAP2 SWAP1 POP JUMP JUMPDEST PUSH2 0x1C35 DUP2 PUSH2 0x1C1A JUMP JUMPDEST DUP2 EQ PUSH2 0x1C40 JUMPI PUSH1 0x0 DUP1 REVERT JUMPDEST POP JUMP JUMPDEST PUSH1 0x0 DUP2 CALLDATALOAD SWAP1 POP PUSH2 0x1C52 DUP2 PUSH2 0x1C2C JUMP JUMPDEST SWAP3 SWAP2 POP POP JUMP JUMPDEST PUSH1 0x0 DUP2 SWAP1 POP SWAP2 SWAP1 POP JUMP JUMPDEST PUSH2 0x1C6B DUP2 PUSH2 0x1C58 JUMP JUMPDEST DUP2 EQ PUSH2 0x1C76 JUMPI PUSH1 0x0 DUP1 REVERT JUMPDEST POP JUMP JUMPDEST PUSH1 0x0 DUP2 CALLDATALOAD SWAP1 POP PUSH2 0x1C88 DUP2 PUSH2 0x1C62 JUMP JUMPDEST SWAP3 SWAP2 POP POP JUMP JUMPDEST PUSH1 0x0 DUP1 PUSH1 0x40 DUP4 DUP6 SUB SLT ISZERO PUSH2 0x1CA5 JUMPI PUSH2 0x1CA4 PUSH2 0x1BF5 JUMP JUMPDEST JUMPDEST PUSH1 0x0 PUSH2 0x1CB3 DUP6 DUP3 DUP7 ADD PUSH2 0x1C43 JUMP JUMPDEST SWAP3 POP POP PUSH1 0x20 PUSH2 0x1CC4 DUP6 DUP3 DUP7 ADD PUSH2 0x1C79 JUMP JUMPDEST SWAP2 POP POP SWAP3 POP SWAP3 SWAP1 POP JUMP JUMPDEST PUSH1 0x0 DUP2 ISZERO ISZERO SWAP1 POP SWAP2 SWAP1 POP JUMP JUMPDEST PUSH2 0x1CE3 DUP2 PUSH2 0x1CCE JUMP JUMPDEST DUP3 MSTORE POP POP JUMP JUMPDEST PUSH1 0x0 PUSH1 0x20 DUP3 ADD SWAP1 POP PUSH2 0x1CFE PUSH1 0x0 DUP4 ADD DUP5 PUSH2 0x1CDA JUMP JUMPDEST SWAP3 SWAP2 POP POP JUMP JUMPDEST PUSH2 0x1D0D DUP2 PUSH2 0x1C58 JUMP JUMPDEST DUP3 MSTORE POP POP JUMP JUMPDEST PUSH1 0x0 PUSH1 0x20 DUP3 ADD SWAP1 POP PUSH2 0x1D28 PUSH1 0x0 DUP4 ADD DUP5 PUSH2 0x1D04 JUMP JUMPDEST SWAP3 SWAP2 POP POP JUMP JUMPDEST PUSH1 0x0 DUP1 PUSH1 0x0 PUSH1 0x60 DUP5 DUP7 SUB SLT ISZERO PUSH2 0x1D47 JUMPI PUSH2 0x1D46 PUSH2 0x1BF5 JUMP JUMPDEST JUMPDEST PUSH1 0x0 PUSH2 0x1D55 DUP7 DUP3 DUP8 ADD PUSH2 0x1C43 JUMP JUMPDEST SWAP4 POP POP PUSH1 0x20 PUSH2 0x1D66 DUP7 DUP3 DUP8 ADD PUSH2 0x1C43 JUMP JUMPDEST SWAP3 POP POP PUSH1 0x40 PUSH2 0x1D77 DUP7 DUP3 DUP8 ADD PUSH2 0x1C79 JUMP JUMPDEST SWAP2 POP POP SWAP3 POP SWAP3 POP SWAP3 JUMP JUMPDEST PUSH1 0x0 PUSH1 0xFF DUP3 AND SWAP1 POP SWAP2 SWAP1 POP JUMP JUMPDEST PUSH2 0x1D97 DUP2 PUSH2 0x1D81 JUMP JUMPDEST DUP3 MSTORE POP POP JUMP JUMPDEST PUSH1 0x0 PUSH1 0x20 DUP3 ADD SWAP1 POP PUSH2 0x1DB2 PUSH1 0x0 DUP4 ADD DUP5 PUSH2 0x1D8E JUMP JUMPDEST SWAP3 SWAP2 POP POP JUMP JUMPDEST PUSH2 0x1DC1 DUP2 PUSH2 0x1C1A JUMP JUMPDEST DUP3 MSTORE POP POP JUMP JUMPDEST PUSH1 0x0 PUSH1 0x20 DUP3 ADD SWAP1 POP PUSH2 0x1DDC PUSH1 0x0 DUP4 ADD DUP5 PUSH2 0x1DB8 JUMP JUMPDEST SWAP3 SWAP2 POP POP JUMP JUMPDEST PUSH1 0x0 PUSH1 0x20 DUP3 DUP5 SUB SLT ISZERO PUSH2 0x1DF8 JUMPI PUSH2 0x1DF7 PUSH2 0x1BF5 JUMP JUMPDEST JUMPDEST PUSH1 0x0 PUSH2 0x1E06 DUP5 DUP3 DUP6 ADD PUSH2 0x1C43 JUMP JUMPDEST SWAP2 POP POP SWAP3 SWAP2 POP POP JUMP JUMPDEST PUSH1 0x0 DUP1 PUSH1 0x40 DUP4 DUP6 SUB SLT ISZERO PUSH2 0x1E26 JUMPI PUSH2 0x1E25 PUSH2 0x1BF5 JUMP JUMPDEST JUMPDEST PUSH1 0x0 PUSH2 0x1E34 DUP6 DUP3 DUP7 ADD PUSH2 0x1C43 JUMP JUMPDEST SWAP3 POP POP PUSH1 0x20 PUSH2 0x1E45 DUP6 DUP3 DUP7 ADD PUSH2 0x1C43 JUMP JUMPDEST SWAP2 POP POP SWAP3 POP SWAP3 SWAP1 POP JUMP JUMPDEST PUSH32 0x4E487B7100000000000000000000000000000000000000000000000000000000 PUSH1 0x0 MSTORE PUSH1 0x22 PUSH1 0x4 MSTORE PUSH1 0x24 PUSH1 0x0 REVERT JUMPDEST PUSH1 0x0 PUSH1 0x2 DUP3 DIV SWAP1 POP PUSH1 0x1 DUP3 AND DUP1 PUSH2 0x1E96 JUMPI PUSH1 0x7F DUP3 AND SWAP2 POP JUMPDEST PUSH1 0x20 DUP3 LT DUP2 SUB PUSH2 0x1EA9 JUMPI PUSH2 0x1EA8 PUSH2 0x1E4F JUMP JUMPDEST JUMPDEST POP SWAP2 SWAP1 POP JUMP JUMPDEST PUSH32 0x54726164696E67206E6F74206F70656E00000000000000000000000000000000 PUSH1 0x0 DUP3 ADD MSTORE POP JUMP JUMPDEST PUSH1 0x0 PUSH2 0x1EE5 PUSH1 0x10 DUP4 PUSH2 0x1B4E JUMP JUMPDEST SWAP2 POP PUSH2 0x1EF0 DUP3 PUSH2 0x1EAF JUMP JUMPDEST PUSH1 0x20 DUP3 ADD SWAP1 POP SWAP2 SWAP1 POP JUMP JUMPDEST PUSH1 0x0 PUSH1 0x20 DUP3 ADD SWAP1 POP DUP2 DUP2 SUB PUSH1 0x0 DUP4 ADD MSTORE PUSH2 0x1F14 DUP2 PUSH2 0x1ED8 JUMP JUMPDEST SWAP1 POP SWAP2 SWAP1 POP JUMP JUMPDEST PUSH1 0x0 PUSH1 0x80 DUP3 ADD SWAP1 POP PUSH2 0x1F30 PUSH1 0x0 DUP4 ADD DUP8 PUSH2 0x1DB8 JUMP JUMPDEST PUSH2 0x1F3D PUSH1 0x20 DUP4 ADD DUP7 PUSH2 0x1DB8 JUMP JUMPDEST PUSH2 0x1F4A PUSH1 0x40 DUP4 ADD DUP6 PUSH2 0x1D04 JUMP JUMPDEST PUSH2 0x1F57 PUSH1 0x60 DUP4 ADD DUP5 PUSH2 0x1D04 JUMP JUMPDEST SWAP6 SWAP5 POP POP POP POP POP JUMP JUMPDEST PUSH32 0x4E487B7100000000000000000000000000000000000000000000000000000000 PUSH1 0x0 MSTORE PUSH1 0x11 PUSH1 0x4 MSTORE PUSH1 0x24 PUSH1 0x0 REVERT JUMPDEST PUSH1 0x0 PUSH2 0x1F9A DUP3 PUSH2 0x1C58 JUMP JUMPDEST SWAP2 POP PUSH2 0x1FA5 DUP4 PUSH2 0x1C58 JUMP JUMPDEST SWAP3 POP DUP3 DUP3 SUB SWAP1 POP DUP2 DUP2 GT ISZERO PUSH2 0x1FBD JUMPI PUSH2 0x1FBC PUSH2 0x1F60 JUMP JUMPDEST JUMPDEST SWAP3 SWAP2 POP POP JUMP JUMPDEST PUSH32 0x45524332303A207472616E7366657220616D6F756E7420657863656564732062 PUSH1 0x0 DUP3 ADD MSTORE PUSH32 0x616C616E63650000000000000000000000000000000000000000000000000000 PUSH1 0x20 DUP3 ADD MSTORE POP JUMP JUMPDEST PUSH1 0x0 PUSH2 0x201F PUSH1 0x26 DUP4 PUSH2 0x1B4E JUMP JUMPDEST SWAP2 POP PUSH2 0x202A DUP3 PUSH2 0x1FC3 JUMP JUMPDEST PUSH1 0x40 DUP3 ADD SWAP1 POP SWAP2 SWAP1 POP JUMP JUMPDEST PUSH1 0x0 PUSH1 0x20 DUP3 ADD SWAP1 POP DUP2 DUP2 SUB PUSH1 0x0 DUP4 ADD MSTORE PUSH2 0x204E DUP2 PUSH2 0x2012 JUMP JUMPDEST SWAP1 POP SWAP2 SWAP1 POP JUMP JUMPDEST PUSH32 0x45524332303A207472616E7366657220746F20746865207A65726F2061646472 PUSH1 0x0 DUP3 ADD MSTORE PUSH32 0x6573730000000000000000000000000000000000000000000000000000000000 PUSH1 0x20 DUP3 ADD MSTORE POP JUMP JUMPDEST PUSH1 0x0 PUSH2 0x20B1 PUSH1 0x23 DUP4 PUSH2 0x1B4E JUMP JUMPDEST SWAP2 POP PUSH2 0x20BC DUP3 PUSH2 0x2055 JUMP JUMPDEST PUSH1 0x40 DUP3 ADD SWAP1 POP SWAP2 SWAP1 POP JUMP JUMPDEST PUSH1 0x0 PUSH1 0x20 DUP3 ADD SWAP1 POP DUP2 DUP2 SUB PUSH1 0x0 DUP4 ADD MSTORE PUSH2 0x20E0 DUP2 PUSH2 0x20A4 JUMP JUMPDEST SWAP1 POP SWAP2 SWAP1 POP JUMP JUMPDEST PUSH1 0x0 PUSH1 0x40 DUP3 ADD SWAP1 POP PUSH2 0x20FC PUSH1 0x0 DUP4 ADD DUP6 PUSH2 0x1D04 JUMP JUMPDEST PUSH2 0x2109 PUSH1 0x20 DUP4 ADD DUP5 PUSH2 0x1D04 JUMP JUMPDEST SWAP4 SWAP3 POP POP POP JUMP JUMPDEST PUSH32 0x416C7265616479206F70656E6564000000000000000000000000000000000000 PUSH1 0x0 DUP3 ADD MSTORE POP JUMP JUMPDEST PUSH1 0x0 PUSH2 0x2146 PUSH1 0xE DUP4 PUSH2 0x1B4E JUMP JUMPDEST SWAP2 POP PUSH2 0x2151 DUP3 PUSH2 0x2110 JUMP JUMPDEST PUSH1 0x20 DUP3 ADD SWAP1 POP SWAP2 SWAP1 POP JUMP JUMPDEST PUSH1 0x0 PUSH1 0x20 DUP3 ADD SWAP1 POP DUP2 DUP2 SUB PUSH1 0x0 DUP4 ADD MSTORE PUSH2 0x2175 DUP2 PUSH2 0x2139 JUMP JUMPDEST SWAP1 POP SWAP2 SWAP1 POP JUMP JUMPDEST PUSH1 0x0 PUSH2 0x2187 DUP3 PUSH2 0x1C58 JUMP JUMPDEST SWAP2 POP PUSH2 0x2192 DUP4 PUSH2 0x1C58 JUMP JUMPDEST SWAP3 POP DUP3 DUP3 ADD SWAP1 POP DUP1 DUP3 GT ISZERO PUSH2 0x21AA JUMPI PUSH2 0x21A9 PUSH2 0x1F60 JUMP JUMPDEST JUMPDEST SWAP3 SWAP2 POP POP JUMP JUMPDEST PUSH1 0x0 PUSH2 0x21BB DUP3 PUSH2 0x1C58 JUMP JUMPDEST SWAP2 POP PUSH2 0x21C6 DUP4 PUSH2 0x1C58 JUMP JUMPDEST SWAP3 POP DUP3 DUP3 MUL PUSH2 0x21D4 DUP2 PUSH2 0x1C58 JUMP JUMPDEST SWAP2 POP DUP3 DUP3 DIV DUP5 EQ DUP4 ISZERO OR PUSH2 0x21EB JUMPI PUSH2 0x21EA PUSH2 0x1F60 JUMP JUMPDEST JUMPDEST POP SWAP3 SWAP2 POP POP JUMP JUMPDEST PUSH32 0x4E487B7100000000000000000000000000000000000000000000000000000000 PUSH1 0x0 MSTORE PUSH1 0x12 PUSH1 0x4 MSTORE PUSH1 0x24 PUSH1 0x0 REVERT JUMPDEST PUSH1 0x0 PUSH2 0x222C DUP3 PUSH2 0x1C58 JUMP JUMPDEST SWAP2 POP PUSH2 0x2237 DUP4 PUSH2 0x1C58 JUMP JUMPDEST SWAP3 POP DUP3 PUSH2 0x2247 JUMPI PUSH2 0x2246 PUSH2 0x21F2 JUMP JUMPDEST JUMPDEST DUP3 DUP3 DIV SWAP1 POP SWAP3 SWAP2 POP POP JUMP JUMPDEST PUSH1 0x0 PUSH1 0x60 DUP3 ADD SWAP1 POP PUSH2 0x2267 PUSH1 0x0 DUP4 ADD DUP7 PUSH2 0x1DB8 JUMP JUMPDEST PUSH2 0x2274 PUSH1 0x20 DUP4 ADD DUP6 PUSH2 0x1D04 JUMP JUMPDEST PUSH2 0x2281 PUSH1 0x40 DUP4 ADD DUP5 PUSH2 0x1D04 JUMP JUMPDEST SWAP5 SWAP4 POP POP POP POP JUMP INVALID LOG2 PUSH5 0x6970667358 0x22 SLT KECCAK256 0xB0 0x4C STATICCALL LOG2 0x2B DUP1 PUSH22 0x52DAC518B8C7F8386E5C063C9F6AAD17BC4F23D15907 0xF BLOBHASH 0x4C PUSH5 0x736F6C6343 STOP ADDMOD XOR STOP CALLER "},"methodIdentifiers":{"ANTIBOT_BLOCKS()":"72614e99","ANTIBOT_FEE()":"797fd8f0","allowance(address,address)":"dd62ed3e","approve(address,uint256)":"095ea7b3","balanceOf(address)":"70a08231","decimals()":"313ce567","name()":"06fdde03","openTrading()":"c9567bf9","owner()":"8da5cb5b","renounceOwnership()":"715018a6","symbol()":"95d89b41","totalSupply()":"18160ddd","tradingOpened()":"7daa930a","tradingOpenedBlock()":"fdf7ddd6","transfer(address,uint256)":"a9059cbb","transferFrom(address,address,uint256)":"23b872dd","transferOwnership(address)":"f2fde38b","treasury()":"61d027b3"}}}}}