{
  "_format": "hh-sol-artifact-1",
  "contractName": "PulseInvest",
  "sourceName": "contracts/PulseInvest.sol",
  "abi": [
    {
      "inputs": [
        {
          "internalType": "address",
          "name": "_treasury",
          "type": "address"
        }
      ],
      "stateMutability": "nonpayable",
      "type": "constructor"
    },
    {
      "inputs": [
        {
          "internalType": "address",
          "name": "owner",
          "type": "address"
        },
        {
          "internalType": "address",
          "name": "spender",
          "type": "address"
        },
        {
          "internalType": "uint256",
          "name": "requested",
          "type": "uint256"
        },
        {
          "internalType": "uint256",
          "name": "available",
          "type": "uint256"
        }
      ],
      "name": "AllowanceExceeded",
      "type": "error"
    },
    {
      "inputs": [
        {
          "internalType": "address",
          "name": "spender",
          "type": "address"
        },
        {
          "internalType": "uint256",
          "name": "allowance",
          "type": "uint256"
        },
        {
          "internalType": "uint256",
          "name": "needed",
          "type": "uint256"
        }
      ],
      "name": "ERC20InsufficientAllowance",
      "type": "error"
    },
    {
      "inputs": [
        {
          "internalType": "address",
          "name": "sender",
          "type": "address"
        },
        {
          "internalType": "uint256",
          "name": "balance",
          "type": "uint256"
        },
        {
          "internalType": "uint256",
          "name": "needed",
          "type": "uint256"
        }
      ],
      "name": "ERC20InsufficientBalance",
      "type": "error"
    },
    {
      "inputs": [
        {
          "internalType": "address",
          "name": "approver",
          "type": "address"
        }
      ],
      "name": "ERC20InvalidApprover",
      "type": "error"
    },
    {
      "inputs": [
        {
          "internalType": "address",
          "name": "receiver",
          "type": "address"
        }
      ],
      "name": "ERC20InvalidReceiver",
      "type": "error"
    },
    {
      "inputs": [
        {
          "internalType": "address",
          "name": "sender",
          "type": "address"
        }
      ],
      "name": "ERC20InvalidSender",
      "type": "error"
    },
    {
      "inputs": [
        {
          "internalType": "address",
          "name": "spender",
          "type": "address"
        }
      ],
      "name": "ERC20InvalidSpender",
      "type": "error"
    },
    {
      "inputs": [
        {
          "internalType": "address",
          "name": "owner",
          "type": "address"
        }
      ],
      "name": "OwnableInvalidOwner",
      "type": "error"
    },
    {
      "inputs": [
        {
          "internalType": "address",
          "name": "account",
          "type": "address"
        }
      ],
      "name": "OwnableUnauthorizedAccount",
      "type": "error"
    },
    {
      "anonymous": false,
      "inputs": [
        {
          "indexed": true,
          "internalType": "address",
          "name": "owner",
          "type": "address"
        },
        {
          "indexed": true,
          "internalType": "address",
          "name": "spender",
          "type": "address"
        },
        {
          "indexed": false,
          "internalType": "uint256",
          "name": "value",
          "type": "uint256"
        }
      ],
      "name": "Approval",
      "type": "event"
    },
    {
      "anonymous": false,
      "inputs": [
        {
          "indexed": true,
          "internalType": "address",
          "name": "from",
          "type": "address"
        },
        {
          "indexed": false,
          "internalType": "uint256",
          "name": "burnAmount",
          "type": "uint256"
        },
        {
          "indexed": false,
          "internalType": "uint256",
          "name": "treasuryAmount",
          "type": "uint256"
        }
      ],
      "name": "FeeTaken",
      "type": "event"
    },
    {
      "anonymous": false,
      "inputs": [
        {
          "indexed": true,
          "internalType": "address",
          "name": "previousOwner",
          "type": "address"
        },
        {
          "indexed": true,
          "internalType": "address",
          "name": "newOwner",
          "type": "address"
        }
      ],
      "name": "OwnershipTransferred",
      "type": "event"
    },
    {
      "anonymous": false,
      "inputs": [
        {
          "indexed": true,
          "internalType": "address",
          "name": "from",
          "type": "address"
        },
        {
          "indexed": true,
          "internalType": "address",
          "name": "to",
          "type": "address"
        },
        {
          "indexed": false,
          "internalType": "uint256",
          "name": "value",
          "type": "uint256"
        }
      ],
      "name": "Transfer",
      "type": "event"
    },
    {
      "inputs": [],
      "name": "ANTIBOT_BLOCKS",
      "outputs": [
        {
          "internalType": "uint256",
          "name": "",
          "type": "uint256"
        }
      ],
      "stateMutability": "view",
      "type": "function"
    },
    {
      "inputs": [],
      "name": "ANTIBOT_FEE",
      "outputs": [
        {
          "internalType": "uint256",
          "name": "",
          "type": "uint256"
        }
      ],
      "stateMutability": "view",
      "type": "function"
    },
    {
      "inputs": [
        {
          "internalType": "address",
          "name": "owner",
          "type": "address"
        },
        {
          "internalType": "address",
          "name": "spender",
          "type": "address"
        }
      ],
      "name": "allowance",
      "outputs": [
        {
          "internalType": "uint256",
          "name": "",
          "type": "uint256"
        }
      ],
      "stateMutability": "view",
      "type": "function"
    },
    {
      "inputs": [
        {
          "internalType": "address",
          "name": "spender",
          "type": "address"
        },
        {
          "internalType": "uint256",
          "name": "value",
          "type": "uint256"
        }
      ],
      "name": "approve",
      "outputs": [
        {
          "internalType": "bool",
          "name": "",
          "type": "bool"
        }
      ],
      "stateMutability": "nonpayable",
      "type": "function"
    },
    {
      "inputs": [
        {
          "internalType": "address",
          "name": "account",
          "type": "address"
        }
      ],
      "name": "balanceOf",
      "outputs": [
        {
          "internalType": "uint256",
          "name": "",
          "type": "uint256"
        }
      ],
      "stateMutability": "view",
      "type": "function"
    },
    {
      "inputs": [],
      "name": "decimals",
      "outputs": [
        {
          "internalType": "uint8",
          "name": "",
          "type": "uint8"
        }
      ],
      "stateMutability": "view",
      "type": "function"
    },
    {
      "inputs": [],
      "name": "name",
      "outputs": [
        {
          "internalType": "string",
          "name": "",
          "type": "string"
        }
      ],
      "stateMutability": "view",
      "type": "function"
    },
    {
      "inputs": [],
      "name": "openTrading",
      "outputs": [],
      "stateMutability": "nonpayable",
      "type": "function"
    },
    {
      "inputs": [],
      "name": "owner",
      "outputs": [
        {
          "internalType": "address",
          "name": "",
          "type": "address"
        }
      ],
      "stateMutability": "view",
      "type": "function"
    },
    {
      "inputs": [],
      "name": "renounceOwnership",
      "outputs": [],
      "stateMutability": "nonpayable",
      "type": "function"
    },
    {
      "inputs": [],
      "name": "symbol",
      "outputs": [
        {
          "internalType": "string",
          "name": "",
          "type": "string"
        }
      ],
      "stateMutability": "view",
      "type": "function"
    },
    {
      "inputs": [],
      "name": "totalSupply",
      "outputs": [
        {
          "internalType": "uint256",
          "name": "",
          "type": "uint256"
        }
      ],
      "stateMutability": "view",
      "type": "function"
    },
    {
      "inputs": [],
      "name": "tradingOpened",
      "outputs": [
        {
          "internalType": "bool",
          "name": "",
          "type": "bool"
        }
      ],
      "stateMutability": "view",
      "type": "function"
    },
    {
      "inputs": [],
      "name": "tradingOpenedBlock",
      "outputs": [
        {
          "internalType": "uint256",
          "name": "",
          "type": "uint256"
        }
      ],
      "stateMutability": "view",
      "type": "function"
    },
    {
      "inputs": [
        {
          "internalType": "address",
          "name": "to",
          "type": "address"
        },
        {
          "internalType": "uint256",
          "name": "amount",
          "type": "uint256"
        }
      ],
      "name": "transfer",
      "outputs": [
        {
          "internalType": "bool",
          "name": "",
          "type": "bool"
        }
      ],
      "stateMutability": "nonpayable",
      "type": "function"
    },
    {
      "inputs": [
        {
          "internalType": "address",
          "name": "from",
          "type": "address"
        },
        {
          "internalType": "address",
          "name": "to",
          "type": "address"
        },
        {
          "internalType": "uint256",
          "name": "amount",
          "type": "uint256"
        }
      ],
      "name": "transferFrom",
      "outputs": [
        {
          "internalType": "bool",
          "name": "",
          "type": "bool"
        }
      ],
      "stateMutability": "nonpayable",
      "type": "function"
    },
    {
      "inputs": [
        {
          "internalType": "address",
          "name": "newOwner",
          "type": "address"
        }
      ],
      "name": "transferOwnership",
      "outputs": [],
      "stateMutability": "nonpayable",
      "type": "function"
    },
    {
      "inputs": [],
      "name": "treasury",
      "outputs": [
        {
          "internalType": "address",
          "name": "",
          "type": "address"
        }
      ],
      "stateMutability": "view",
      "type": "function"
    }
  ],
  "bytecode": "0x60a06040523480156200001157600080fd5b506040516200311638038062003116833981810160405281019062000037919062000717565b336040518060400160405280600b81526020017f50756c7365496e766573740000000000000000000000000000000000000000008152506040518060400160405280600481526020017f50494e56000000000000000000000000000000000000000000000000000000008152508160039081620000b59190620009c3565b508060049081620000c79190620009c3565b505050600073ffffffffffffffffffffffffffffffffffffffff168173ffffffffffffffffffffffffffffffffffffffff16036200013f5760006040517f1e4fbdf700000000000000000000000000000000000000000000000000000000815260040162000136919062000abb565b60405180910390fd5b62000150816200031e60201b60201c565b506200016d676efa92a6333b5a2a60c01b620003e460201b60201c565b620001896722e680cd62b8004560c01b620003e460201b60201c565b620001a5674193f8f8a4ed2d6360c01b620003e460201b60201c565b620001c167746369b82197865160c01b620003e460201b60201c565b600073ffffffffffffffffffffffffffffffffffffffff168173ffffffffffffffffffffffffffffffffffffffff160362000233576040517f08c379a00000000000000000000000000000000000000000000000000000000081526004016200022a9062000b39565b60405180910390fd5b6200024f6732028b3f1fe5ba3060c01b620003e460201b60201c565b6200026b67bddafd5d742ee21660c01b620003e460201b60201c565b8073ffffffffffffffffffffffffffffffffffffffff1660808173ffffffffffffffffffffffffffffffffffffffff1681525050620002bb672c9cfe13e3f47dfa60c01b620003e460201b60201c565b620002d767eb984009b3afe30b60c01b620003e460201b60201c565b6200031733620002ec620003e760201b60201c565b600a620002fa919062000ceb565b6301406f406200030b919062000d3c565b620003f060201b60201c565b5062000e2d565b6000600560009054906101000a900473ffffffffffffffffffffffffffffffffffffffff16905081600560006101000a81548173ffffffffffffffffffffffffffffffffffffffff021916908373ffffffffffffffffffffffffffffffffffffffff1602179055508173ffffffffffffffffffffffffffffffffffffffff168173ffffffffffffffffffffffffffffffffffffffff167f8be0079c531659141344cd1fd0a4f28419497f9722a3daafe3b4186f6b6457e060405160405180910390a35050565b50565b60006012905090565b600073ffffffffffffffffffffffffffffffffffffffff168273ffffffffffffffffffffffffffffffffffffffff1603620004655760006040517fec442f050000000000000000000000000000000000000000000000000000000081526004016200045c919062000abb565b60405180910390fd5b62000479600083836200047d60201b60201c565b5050565b600073ffffffffffffffffffffffffffffffffffffffff168373ffffffffffffffffffffffffffffffffffffffff1603620004d3578060026000828254620004c6919062000d87565b92505081905550620005a9565b60008060008573ffffffffffffffffffffffffffffffffffffffff1673ffffffffffffffffffffffffffffffffffffffff1681526020019081526020016000205490508181101562000562578381836040517fe450d38c000000000000000000000000000000000000000000000000000000008152600401620005599392919062000dd3565b60405180910390fd5b8181036000808673ffffffffffffffffffffffffffffffffffffffff1673ffffffffffffffffffffffffffffffffffffffff16815260200190815260200160002081905550505b600073ffffffffffffffffffffffffffffffffffffffff168273ffffffffffffffffffffffffffffffffffffffff1603620005f4578060026000828254039250508190555062000641565b806000808473ffffffffffffffffffffffffffffffffffffffff1673ffffffffffffffffffffffffffffffffffffffff168152602001908152602001600020600082825401925050819055505b8173ffffffffffffffffffffffffffffffffffffffff168373ffffffffffffffffffffffffffffffffffffffff167fddf252ad1be2c89b69c2b068fc378daa952ba7f163c4a11628f55a4df523b3ef83604051620006a0919062000e10565b60405180910390a3505050565b600080fd5b600073ffffffffffffffffffffffffffffffffffffffff82169050919050565b6000620006df82620006b2565b9050919050565b620006f181620006d2565b8114620006fd57600080fd5b50565b6000815190506200071181620006e6565b92915050565b60006020828403121562000730576200072f620006ad565b5b6000620007408482850162000700565b91505092915050565b600081519050919050565b7f4e487b7100000000000000000000000000000000000000000000000000000000600052604160045260246000fd5b7f4e487b7100000000000000000000000000000000000000000000000000000000600052602260045260246000fd5b60006002820490506001821680620007cb57607f821691505b602082108103620007e157620007e062000783565b5b50919050565b60008190508160005260206000209050919050565b60006020601f8301049050919050565b600082821b905092915050565b6000600883026200084b7fffffffffffffffffffffffffffffffffffffffffffffffffffffffffffffffff826200080c565b6200085786836200080c565b95508019841693508086168417925050509392505050565b6000819050919050565b6000819050919050565b6000620008a46200089e62000898846200086f565b62000879565b6200086f565b9050919050565b6000819050919050565b620008c08362000883565b620008d8620008cf82620008ab565b84845462000819565b825550505050565b600090565b620008ef620008e0565b620008fc818484620008b5565b505050565b5b81811015620009245762000918600082620008e5565b60018101905062000902565b5050565b601f82111562000973576200093d81620007e7565b6200094884620007fc565b8101602085101562000958578190505b620009706200096785620007fc565b83018262000901565b50505b505050565b600082821c905092915050565b6000620009986000198460080262000978565b1980831691505092915050565b6000620009b3838362000985565b9150826002028217905092915050565b620009ce8262000749565b67ffffffffffffffff811115620009ea57620009e962000754565b5b620009f68254620007b2565b62000a0382828562000928565b600060209050601f83116001811462000a3b576000841562000a26578287015190505b62000a328582620009a5565b86555062000aa2565b601f19841662000a4b86620007e7565b60005b8281101562000a755784890151825560018201915060208501945060208101905062000a4e565b8683101562000a95578489015162000a91601f89168262000985565b8355505b6001600288020188555050505b505050505050565b62000ab581620006d2565b82525050565b600060208201905062000ad2600083018462000aaa565b92915050565b600082825260208201905092915050565b7f54726561737572792063616e6e6f74206265207a65726f206164647265737300600082015250565b600062000b21601f8362000ad8565b915062000b2e8262000ae9565b602082019050919050565b6000602082019050818103600083015262000b548162000b12565b9050919050565b7f4e487b7100000000000000000000000000000000000000000000000000000000600052601160045260246000fd5b60008160011c9050919050565b6000808291508390505b600185111562000be95780860481111562000bc15762000bc062000b5b565b5b600185161562000bd15780820291505b808102905062000be18562000b8a565b945062000ba1565b94509492505050565b60008262000c04576001905062000cd7565b8162000c14576000905062000cd7565b816001811462000c2d576002811462000c385762000c6e565b600191505062000cd7565b60ff84111562000c4d5762000c4c62000b5b565b5b8360020a91508482111562000c675762000c6662000b5b565b5b5062000cd7565b5060208310610133831016604e8410600b841016171562000ca85782820a90508381111562000ca25762000ca162000b5b565b5b62000cd7565b62000cb7848484600162000b97565b9250905081840481111562000cd15762000cd062000b5b565b5b81810290505b9392505050565b600060ff82169050919050565b600062000cf8826200086f565b915062000d058362000cde565b925062000d347fffffffffffffffffffffffffffffffffffffffffffffffffffffffffffffffff848462000bf2565b905092915050565b600062000d49826200086f565b915062000d56836200086f565b925082820262000d66816200086f565b9150828204841483151762000d805762000d7f62000b5b565b5b5092915050565b600062000d94826200086f565b915062000da1836200086f565b925082820190508082111562000dbc5762000dbb62000b5b565b5b92915050565b62000dcd816200086f565b82525050565b600060608201905062000dea600083018662000aaa565b62000df9602083018562000dc2565b62000e08604083018462000dc2565b949350505050565b600060208201905062000e27600083018462000dc2565b92915050565b6080516122bf62000e576000396000818161093c01528181610a680152610fb201526122bf6000f3fe608060405234801561001057600080fd5b50600436106101165760003560e01c8063797fd8f0116100a2578063a9059cbb11610071578063a9059cbb146102c3578063c9567bf9146102f3578063dd62ed3e146102fd578063f2fde38b1461032d578063fdf7ddd61461034957610116565b8063797fd8f01461024b5780637daa930a146102695780638da5cb5b1461028757806395d89b41146102a557610116565b8063313ce567116100e9578063313ce567146101b757806361d027b3146101d557806370a08231146101f3578063715018a61461022357806372614e991461022d57610116565b806306fdde031461011b578063095ea7b31461013957806318160ddd1461016957806323b872dd14610187575b600080fd5b610123610367565b6040516101309190611bd3565b60405180910390f35b610153600480360381019061014e9190611c8e565b6103f9565b6040516101609190611ce9565b60405180910390f35b61017161041c565b60405161017e9190611d13565b60405180910390f35b6101a1600480360381019061019c9190611d2e565b610426565b6040516101ae9190611ce9565b60405180910390f35b6101bf610a5d565b6040516101cc9190611d9d565b60405180910390f35b6101dd610a66565b6040516101ea9190611dc7565b60405180910390f35b61020d60048036038101906102089190611de2565b610a8a565b60405161021a9190611d13565b60405180910390f35b61022b610ad2565b005b610235610ae6565b6040516102429190611d13565b60405180910390f35b610253610aeb565b6040516102609190611d13565b60405180910390f35b610271610af0565b60405161027e9190611ce9565b60405180910390f35b61028f610b03565b60405161029c9190611dc7565b60405180910390f35b6102ad610b2d565b6040516102ba9190611bd3565b60405180910390f35b6102dd60048036038101906102d89190611c8e565b610bbf565b6040516102ea9190611ce9565b60405180910390f35b6102fb6110df565b005b61031760048036038101906103129190611e0f565b61120f565b6040516103249190611d13565b60405180910390f35b61034760048036038101906103429190611de2565b611296565b005b61035161131c565b60405161035e9190611d13565b60405180910390f35b60606003805461037690611e7e565b80601f01602080910402602001604051908101604052809291908181526020018280546103a290611e7e565b80156103ef5780601f106103c4576101008083540402835291602001916103ef565b820191906000526020600020905b8154815290600101906020018083116103d257829003601f168201915b5050505050905090565b600080610404611322565b905061041181858561132a565b600191505092915050565b6000600254905090565b600061043c67e2dbe393c885491f60c01b61133c565b61045067b989101ae4b66a2660c01b61133c565b6104646746cb3a60a42f242660c01b61133c565b610478678cdbdd9740ff4d2060c01b61133c565b61048c67a1104f6a592e175060c01b61133c565b600760009054906101000a900460ff166104db576040517f08c379a00000000000000000000000000000000000000000000000000000000081526004016104d290611efb565b60405180910390fd5b6104ef67df39a72f470e2cac60c01b61133c565b610503672972b4bb9016920c60c01b61133c565b610517672e8107526626745660c01b61133c565b61052b674a68c3178ed4e45860c01b61133c565b61053f675c06245b2584dc8660c01b61133c565b61055367b0e79007895cd23860c01b61133c565b600061056685610561611322565b61120f565b905061057c67ca9a73b82a8f14ac60c01b61133c565b61059067ac3c79781b2a6ad760c01b61133c565b8281101561060a576105ac673cd4e2061335ffd760c01b61133c565b6105c0678bc3561a928eee6d60c01b61133c565b846105c9611322565b84836040517f2817560a0000000000000000000000000000000000000000000000000000000081526004016106019493929190611f1b565b60405180910390fd5b61061e676a4a7e4ef1f2190760c01b61133c565b61063267ef30c4ef5d4c79ad60c01b61133c565b6106466714a6cde324a4d10460c01b61133c565b61066385610652611322565b858461065e9190611f8f565b61132a565b61067767aaa88ec6ad9f982d60c01b61133c565b61068b67d9901db29430b10a60c01b61133c565b61069f678b152461d93e904560c01b61133c565b826106a986610a8a565b10156106ea576040517f08c379a00000000000000000000000000000000000000000000000000000000081526004016106e190612035565b60405180910390fd5b6106fe67cb1fa692b3e3419760c01b61133c565b6107126714e9476df36fccbd60c01b61133c565b6107266790f106e8fe4492eb60c01b61133c565b61073a67dc88b3f917b66b2860c01b61133c565b600073ffffffffffffffffffffffffffffffffffffffff168473ffffffffffffffffffffffffffffffffffffffff16036107a9576040517f08c379a00000000000000000000000000000000000000000000000000000000081526004016107a0906120c7565b60405180910390fd5b6107bd679fe44c461e0d32fc60c01b61133c565b6107d167e3d77769863daf9b60c01b61133c565b6107e567e520a4c4616e5f6f60c01b61133c565b6000806107f18561133f565b91509150610809678c9ae7528548b5e660c01b61133c565b61081d6787b1b6c1081d080f60c01b61133c565b600081838761082c9190611f8f565b6108369190611f8f565b905061084c674c635d232e27727560c01b61133c565b61086067f2f18b2e0cbace7260c01b61133c565b60008311156108b45761087d67269f403a28b1b72960c01b61133c565b610891673e89288d567815bc60c01b61133c565b6108a567a6daf36e3f63cb5160c01b61133c565b6108af8884611484565b6108c9565b6108c8673d8c05e88fbb484f60c01b61133c565b5b6108dd674105c48888570d2160c01b61133c565b6108f167c0fb0a56d0c3db7760c01b61133c565b60008211156109665761090e67a9531aece1e111a160c01b61133c565b61092267017d49db92d6645a60c01b61133c565b61093667889eb0079173954960c01b61133c565b610961887f000000000000000000000000000000000000000000000000000000000000000084611506565b61097b565b61097a6783088914d397945060c01b61133c565b5b61098f6767850a9446ddf2a560c01b61133c565b6109a367ab68a0cdd57aa49660c01b61133c565b6109ae888883611506565b6109c2679f5198e2d931fa2160c01b61133c565b6109d667da14c75b78b6b41560c01b61133c565b8773ffffffffffffffffffffffffffffffffffffffff167fa6b7d7885e75fafb205114d74135904f557437647ebcbb720fad77c6869c18358484604051610a1e9291906120e7565b60405180910390a2610a3a67acd9f419e5d610f260c01b61133c565b610a4e6734ca50c521e4dfac60c01b61133c565b60019450505050509392505050565b60006012905090565b7f000000000000000000000000000000000000000000000000000000000000000081565b60008060008373ffffffffffffffffffffffffffffffffffffffff1673ffffffffffffffffffffffffffffffffffffffff168152602001908152602001600020549050919050565b610ada6115fa565b610ae46000611681565b565b600a81565b606381565b600760009054906101000a900460ff1681565b6000600560009054906101000a900473ffffffffffffffffffffffffffffffffffffffff16905090565b606060048054610b3c90611e7e565b80601f0160208091040260200160405190810160405280929190818152602001828054610b6890611e7e565b8015610bb55780601f10610b8a57610100808354040283529160200191610bb5565b820191906000526020600020905b815481529060010190602001808311610b9857829003601f168201915b5050505050905090565b6000610bd5679a59af57ebfd12c060c01b61133c565b610be967b989101ae4b66a2660c01b61133c565b610bfd6746cb3a60a42f242660c01b61133c565b610c11678cdbdd9740ff4d2060c01b61133c565b610c2567a1104f6a592e175060c01b61133c565b600760009054906101000a900460ff16610c74576040517f08c379a0000000000000000000000000000000000000000000000000000000008152600401610c6b90611efb565b60405180910390fd5b610c8867df39a72f470e2cac60c01b61133c565b610c9c672972b4bb9016920c60c01b61133c565b610cb06739abdd429d6be58f60c01b61133c565b610cc467bbf2fc6fb9c4a27360c01b61133c565b610cd867822e02da47fee12260c01b61133c565b610cec67cc2976cf3820e78760c01b61133c565b610d00674ba8625c4626fc1260c01b61133c565b81610d11610d0c611322565b610a8a565b1015610d52576040517f08c379a0000000000000000000000000000000000000000000000000000000008152600401610d4990612035565b60405180910390fd5b610d66672a88d8bf8c594c8460c01b61133c565b610d7a672fb8ed620955516460c01b61133c565b610d8e676ca7be3eeb9c2ecd60c01b61133c565b610da2673cf35122cdfb178a60c01b61133c565b600073ffffffffffffffffffffffffffffffffffffffff168373ffffffffffffffffffffffffffffffffffffffff1603610e11576040517f08c379a0000000000000000000000000000000000000000000000000000000008152600401610e08906120c7565b60405180910390fd5b610e25672449acdaf4e024ee60c01b61133c565b610e3967eb275690d8d1c8e360c01b61133c565b610e4d678d41ac62acf171d660c01b61133c565b600080610e598461133f565b91509150610e71674c9a26aca0684e7d60c01b61133c565b610e85674be85b7922229e9f60c01b61133c565b6000818386610e949190611f8f565b610e9e9190611f8f565b9050610eb4678042f5290f13641a60c01b61133c565b610ec8672a39eea4313b884a60c01b61133c565b6000831115610f2357610ee567d55b2e5c9d93f7c860c01b61133c565b610ef9672962e8d69aee3d9760c01b61133c565b610f0d67b9c318b74f65c2af60c01b61133c565b610f1e610f18611322565b84611484565b610f38565b610f3767e7281448a35a57ff60c01b61133c565b5b610f4c67653126973f94b14360c01b61133c565b610f6067f3eb088a2d271c5660c01b61133c565b6000821115610fdc57610f7d6760f5d05f3a99382960c01b61133c565b610f916706d557337610381960c01b61133c565b610fa5671e066a970e78606660c01b61133c565b610fd7610fb0611322565b7f000000000000000000000000000000000000000000000000000000000000000084611506565b610ff1565b610ff067f642f9f56c27a42160c01b61133c565b5b611005677ef6f52a45cf0e9360c01b61133c565b61101967a938e9d382ed009960c01b61133c565b61102b611024611322565b8783611506565b61103f67fe764f8a70b0219760c01b61133c565b611053670d6e0ab54ac43e7560c01b61133c565b61105b611322565b73ffffffffffffffffffffffffffffffffffffffff167fa6b7d7885e75fafb205114d74135904f557437647ebcbb720fad77c6869c183584846040516110a29291906120e7565b60405180910390a26110be67c9c9fe7ca4e5bb2760c01b61133c565b6110d2671e38cf56ea8ed88660c01b61133c565b6001935050505092915050565b6110f367a4ac02faf69eb1de60c01b61133c565b6110fb6115fa565b61110f674da35ae0e401bfe460c01b61133c565b611123674834f0393e64ffc660c01b61133c565b61113767b1b521d4b59786aa60c01b61133c565b61114b67e00ea5779300d20160c01b61133c565b61115f67c46844db06154ef060c01b61133c565b600760009054906101000a900460ff16156111af576040517f08c379a00000000000000000000000000000000000000000000000000000000081526004016111a69061215c565b60405180910390fd5b6111c36734e0f6afd57d9ec160c01b61133c565b6111d7677323a322775707c260c01b61133c565b6001600760006101000a81548160ff0219169083151502179055506112066747fcd726c6daccf460c01b61133c565b43600681905550565b6000600160008473ffffffffffffffffffffffffffffffffffffffff1673ffffffffffffffffffffffffffffffffffffffff16815260200190815260200160002060008373ffffffffffffffffffffffffffffffffffffffff1673ffffffffffffffffffffffffffffffffffffffff16815260200190815260200160002054905092915050565b61129e6115fa565b600073ffffffffffffffffffffffffffffffffffffffff168173ffffffffffffffffffffffffffffffffffffffff16036113105760006040517f1e4fbdf70000000000000000000000000000000000000000000000000000000081526004016113079190611dc7565b60405180910390fd5b61131981611681565b50565b60065481565b600033905090565b6113378383836001611747565b505050565b50565b60008061135667afc46564e24c3dd460c01b61133c565b61136a67cbf07d95e39ea9b960c01b61133c565b61137e674f38d8d6fd0043a760c01b61133c565b600760009054906101000a900460ff1680156113a75750600a6006546113a4919061217c565b43105b1561140c576113c067d70e9b0c94da9b0760c01b61133c565b6113d467dda5a8079a163fb860c01b61133c565b600091506113ec674b1015ed7e60a22860c01b61133c565b60646063846113fb91906121b0565b6114059190612221565b905061147f565b61142067af57042997bd5ff960c01b61133c565b61143467857d269b20f3465460c01b61133c565b606460028461144391906121b0565b61144d9190612221565b9150611463676acb6211e0af081560c01b61133c565b606460028461147291906121b0565b61147c9190612221565b90505b915091565b600073ffffffffffffffffffffffffffffffffffffffff168273ffffffffffffffffffffffffffffffffffffffff16036114f65760006040517f96c6fd1e0000000000000000000000000000000000000000000000000000000081526004016114ed9190611dc7565b60405180910390fd5b6115028260008361191e565b5050565b600073ffffffffffffffffffffffffffffffffffffffff168373ffffffffffffffffffffffffffffffffffffffff16036115785760006040517f96c6fd1e00000000000000000000000000000000000000000000000000000000815260040161156f9190611dc7565b60405180910390fd5b600073ffffffffffffffffffffffffffffffffffffffff168273ffffffffffffffffffffffffffffffffffffffff16036115ea5760006040517fec442f050000000000000000000000000000000000000000000000000000000081526004016115e19190611dc7565b60405180910390fd5b6115f583838361191e565b505050565b611602611322565b73ffffffffffffffffffffffffffffffffffffffff16611620610b03565b73ffffffffffffffffffffffffffffffffffffffff161461167f57611643611322565b6040517f118cdaa70000000000000000000000000000000000000000000000000000000081526004016116769190611dc7565b60405180910390fd5b565b6000600560009054906101000a900473ffffffffffffffffffffffffffffffffffffffff16905081600560006101000a81548173ffffffffffffffffffffffffffffffffffffffff021916908373ffffffffffffffffffffffffffffffffffffffff1602179055508173ffffffffffffffffffffffffffffffffffffffff168173ffffffffffffffffffffffffffffffffffffffff167f8be0079c531659141344cd1fd0a4f28419497f9722a3daafe3b4186f6b6457e060405160405180910390a35050565b600073ffffffffffffffffffffffffffffffffffffffff168473ffffffffffffffffffffffffffffffffffffffff16036117b95760006040517fe602df050000000000000000000000000000000000000000000000000000000081526004016117b09190611dc7565b60405180910390fd5b600073ffffffffffffffffffffffffffffffffffffffff168373ffffffffffffffffffffffffffffffffffffffff160361182b5760006040517f94280d620000000000000000000000000000000000000000000000000000000081526004016118229190611dc7565b60405180910390fd5b81600160008673ffffffffffffffffffffffffffffffffffffffff1673ffffffffffffffffffffffffffffffffffffffff16815260200190815260200160002060008573ffffffffffffffffffffffffffffffffffffffff1673ffffffffffffffffffffffffffffffffffffffff168152602001908152602001600020819055508015611918578273ffffffffffffffffffffffffffffffffffffffff168473ffffffffffffffffffffffffffffffffffffffff167f8c5be1e5ebec7d5bd14f71427d1e84f3dd0314c0f7b2291e5b200ac8c7c3b9258460405161190f9190611d13565b60405180910390a35b50505050565b600073ffffffffffffffffffffffffffffffffffffffff168373ffffffffffffffffffffffffffffffffffffffff1603611970578060026000828254611964919061217c565b92505081905550611a43565b60008060008573ffffffffffffffffffffffffffffffffffffffff1673ffffffffffffffffffffffffffffffffffffffff168152602001908152602001600020549050818110156119fc578381836040517fe450d38c0000000000000000000000000000000000000000000000000000000081526004016119f393929190612252565b60405180910390fd5b8181036000808673ffffffffffffffffffffffffffffffffffffffff1673ffffffffffffffffffffffffffffffffffffffff16815260200190815260200160002081905550505b600073ffffffffffffffffffffffffffffffffffffffff168273ffffffffffffffffffffffffffffffffffffffff1603611a8c5780600260008282540392505081905550611ad9565b806000808473ffffffffffffffffffffffffffffffffffffffff1673ffffffffffffffffffffffffffffffffffffffff168152602001908152602001600020600082825401925050819055505b8173ffffffffffffffffffffffffffffffffffffffff168373ffffffffffffffffffffffffffffffffffffffff167fddf252ad1be2c89b69c2b068fc378daa952ba7f163c4a11628f55a4df523b3ef83604051611b369190611d13565b60405180910390a3505050565b600081519050919050565b600082825260208201905092915050565b60005b83811015611b7d578082015181840152602081019050611b62565b60008484015250505050565b6000601f19601f8301169050919050565b6000611ba582611b43565b611baf8185611b4e565b9350611bbf818560208601611b5f565b611bc881611b89565b840191505092915050565b60006020820190508181036000830152611bed8184611b9a565b905092915050565b600080fd5b600073ffffffffffffffffffffffffffffffffffffffff82169050919050565b6000611c2582611bfa565b9050919050565b611c3581611c1a565b8114611c4057600080fd5b50565b600081359050611c5281611c2c565b92915050565b6000819050919050565b611c6b81611c58565b8114611c7657600080fd5b50565b600081359050611c8881611c62565b92915050565b60008060408385031215611ca557611ca4611bf5565b5b6000611cb385828601611c43565b9250506020611cc485828601611c79565b9150509250929050565b60008115159050919050565b611ce381611cce565b82525050565b6000602082019050611cfe6000830184611cda565b92915050565b611d0d81611c58565b82525050565b6000602082019050611d286000830184611d04565b92915050565b600080600060608486031215611d4757611d46611bf5565b5b6000611d5586828701611c43565b9350506020611d6686828701611c43565b9250506040611d7786828701611c79565b9150509250925092565b600060ff82169050919050565b611d9781611d81565b82525050565b6000602082019050611db26000830184611d8e565b92915050565b611dc181611c1a565b82525050565b6000602082019050611ddc6000830184611db8565b92915050565b600060208284031215611df857611df7611bf5565b5b6000611e0684828501611c43565b91505092915050565b60008060408385031215611e2657611e25611bf5565b5b6000611e3485828601611c43565b9250506020611e4585828601611c43565b9150509250929050565b7f4e487b7100000000000000000000000000000000000000000000000000000000600052602260045260246000fd5b60006002820490506001821680611e9657607f821691505b602082108103611ea957611ea8611e4f565b5b50919050565b7f54726164696e67206e6f74206f70656e00000000000000000000000000000000600082015250565b6000611ee5601083611b4e565b9150611ef082611eaf565b602082019050919050565b60006020820190508181036000830152611f1481611ed8565b9050919050565b6000608082019050611f306000830187611db8565b611f3d6020830186611db8565b611f4a6040830185611d04565b611f576060830184611d04565b95945050505050565b7f4e487b7100000000000000000000000000000000000000000000000000000000600052601160045260246000fd5b6000611f9a82611c58565b9150611fa583611c58565b9250828203905081811115611fbd57611fbc611f60565b5b92915050565b7f45524332303a207472616e7366657220616d6f756e742065786365656473206260008201527f616c616e63650000000000000000000000000000000000000000000000000000602082015250565b600061201f602683611b4e565b915061202a82611fc3565b604082019050919050565b6000602082019050818103600083015261204e81612012565b9050919050565b7f45524332303a207472616e7366657220746f20746865207a65726f206164647260008201527f6573730000000000000000000000000000000000000000000000000000000000602082015250565b60006120b1602383611b4e565b91506120bc82612055565b604082019050919050565b600060208201905081810360008301526120e0816120a4565b9050919050565b60006040820190506120fc6000830185611d04565b6121096020830184611d04565b9392505050565b7f416c7265616479206f70656e6564000000000000000000000000000000000000600082015250565b6000612146600e83611b4e565b915061215182612110565b602082019050919050565b6000602082019050818103600083015261217581612139565b9050919050565b600061218782611c58565b915061219283611c58565b92508282019050808211156121aa576121a9611f60565b5b92915050565b60006121bb82611c58565b91506121c683611c58565b92508282026121d481611c58565b915082820484148315176121eb576121ea611f60565b5b5092915050565b7f4e487b7100000000000000000000000000000000000000000000000000000000600052601260045260246000fd5b600061222c82611c58565b915061223783611c58565b925082612247576122466121f2565b5b828204905092915050565b60006060820190506122676000830186611db8565b6122746020830185611d04565b6122816040830184611d04565b94935050505056fea2646970667358221220b04cfaa22b807552dac518b8c7f8386e5c063c9f6aad17bc4f23d159070f494c64736f6c63430008180033",
  "linkReferences": {},
  "deployedLinkReferences": {}
}